{
  "contractName": "Rideshare",
  "abi": [
    {
      "inputs": [
        {
          "internalType": "uint256",
          "name": "_driverCost",
          "type": "uint256"
        },
        {
          "internalType": "uint256",
          "name": "_capacity",
          "type": "uint256"
        },
        {
          "internalType": "string",
          "name": "_originAddress",
          "type": "string"
        },
        {
          "internalType": "string",
          "name": "_destAddress",
          "type": "string"
        },
        {
          "internalType": "uint256",
          "name": "_departAt",
          "type": "uint256"
        }
      ],
      "name": "createRide",
      "outputs": [],
      "stateMutability": "nonpayable",
      "type": "function"
    },
    {
      "inputs": [
        {
          "internalType": "uint256",
          "name": "rideNumber",
          "type": "uint256"
        }
      ],
      "name": "joinRide",
      "outputs": [],
      "stateMutability": "payable",
      "type": "function",
      "payable": true
    },
    {
      "inputs": [
        {
          "internalType": "uint256",
          "name": "rideNumber",
          "type": "uint256"
        }
      ],
      "name": "getPassengers",
      "outputs": [
        {
          "internalType": "address[]",
          "name": "",
          "type": "address[]"
        }
      ],
      "stateMutability": "view",
      "type": "function",
      "constant": true
    },
    {
      "inputs": [
        {
          "internalType": "uint256",
          "name": "rideNumber",
          "type": "uint256"
        }
      ],
      "name": "getRideStatus",
      "outputs": [
        {
          "internalType": "string",
          "name": "",
          "type": "string"
        }
      ],
      "stateMutability": "view",
      "type": "function",
      "constant": true
    },
    {
      "inputs": [
        {
          "internalType": "uint256",
          "name": "rideNumber",
          "type": "uint256"
        }
      ],
      "name": "getRide",
      "outputs": [
        {
          "internalType": "address",
          "name": "",
          "type": "address"
        },
        {
          "internalType": "uint256",
          "name": "",
          "type": "uint256"
        },
        {
          "internalType": "uint256",
          "name": "",
          "type": "uint256"
        },
        {
          "internalType": "string",
          "name": "",
          "type": "string"
        },
        {
          "internalType": "string",
          "name": "",
          "type": "string"
        },
        {
          "internalType": "uint256",
          "name": "",
          "type": "uint256"
        },
        {
          "internalType": "uint256",
          "name": "",
          "type": "uint256"
        },
        {
          "internalType": "string",
          "name": "",
          "type": "string"
        }
      ],
      "stateMutability": "view",
      "type": "function",
      "constant": true
    },
    {
      "inputs": [],
      "name": "getAvailableRideCount",
      "outputs": [
        {
          "internalType": "uint256",
          "name": "",
          "type": "uint256"
        }
      ],
      "stateMutability": "view",
      "type": "function",
      "constant": true
    },
    {
      "inputs": [],
      "name": "getTotalRideCount",
      "outputs": [
        {
          "internalType": "uint256",
          "name": "",
          "type": "uint256"
        }
      ],
      "stateMutability": "view",
      "type": "function",
      "constant": true
    },
    {
      "inputs": [
        {
          "internalType": "uint256",
          "name": "rideNumber",
          "type": "uint256"
        },
        {
          "internalType": "address",
          "name": "passengerAcct",
          "type": "address"
        }
      ],
      "name": "passengerInRide",
      "outputs": [
        {
          "internalType": "bool",
          "name": "",
          "type": "bool"
        }
      ],
      "stateMutability": "view",
      "type": "function",
      "constant": true
    },
    {
      "inputs": [
        {
          "internalType": "uint256",
          "name": "_rideNumber",
          "type": "uint256"
        }
      ],
      "name": "cancelRide",
      "outputs": [],
      "stateMutability": "nonpayable",
      "type": "function"
    },
    {
      "inputs": [
        {
          "internalType": "uint256",
          "name": "_rideNumber",
          "type": "uint256"
        }
      ],
      "name": "startRide",
      "outputs": [],
      "stateMutability": "nonpayable",
      "type": "function"
    },
    {
      "inputs": [
        {
          "internalType": "uint256",
          "name": "_rideNumber",
          "type": "uint256"
        }
      ],
      "name": "endRide",
      "outputs": [
        {
          "internalType": "bool",
          "name": "",
          "type": "bool"
        }
      ],
      "stateMutability": "nonpayable",
      "type": "function"
    },
    {
      "inputs": [
        {
          "internalType": "uint256",
          "name": "rideNumber",
          "type": "uint256"
        },
        {
          "internalType": "address",
          "name": "passengerAddress",
          "type": "address"
        }
      ],
      "name": "acceptPassengerRequest",
      "outputs": [],
      "stateMutability": "nonpayable",
      "type": "function"
    }
  ],
  "bytecode": "0x608060405234801561001057600080fd5b50612e99806100206000396000f3fe6080604052600436106100a75760003560e01c80639589fe9b116100645780639589fe9b146101ec5780639e156f2d14610217578063a6f07b2914610242578063c4ef54d61461026b578063e9c14b1e146102a8578063f98b6778146102d1576100a7565b806301f32206146100ac57806350a548fc146100c85780635b3f1cb1146101055780636d4d31f21461012e5780637c7b0ff41461016b5780638743e1d3146101af575b600080fd5b6100c660048036038101906100c191906127b1565b6102fa565b005b3480156100d457600080fd5b506100ef60048036038101906100ea91906127b1565b610749565b6040516100fc91906127f9565b60405180910390f35b34801561011157600080fd5b5061012c60048036038101906101279190612872565b610bc8565b005b34801561013a57600080fd5b50610155600480360381019061015091906127b1565b611037565b6040516101629190612970565b60405180910390f35b34801561017757600080fd5b50610192600480360381019061018d91906127b1565b6110ea565b6040516101a6989796959493929190612a49565b60405180910390f35b3480156101bb57600080fd5b506101d660048036038101906101d191906127b1565b61142e565b6040516101e39190612adc565b60405180910390f35b3480156101f857600080fd5b506102016114e5565b60405161020e9190612afe565b60405180910390f35b34801561022357600080fd5b5061022c611869565b6040516102399190612afe565b60405180910390f35b34801561024e57600080fd5b50610269600480360381019061026491906127b1565b611875565b005b34801561027757600080fd5b50610292600480360381019061028d9190612872565b611d1b565b60405161029f91906127f9565b60405180910390f35b3480156102b457600080fd5b506102cf60048036038101906102ca91906127b1565b61209f565b005b3480156102dd57600080fd5b506102f860048036038101906102f39190612c4e565b612494565b005b600080828154811061030f5761030e612d01565b5b9060005260206000209060090201604051806101200160405290816000820160009054906101000a900473ffffffffffffffffffffffffffffffffffffffff1673ffffffffffffffffffffffffffffffffffffffff1673ffffffffffffffffffffffffffffffffffffffff16815260200160018201548152602001600282015481526020016003820180546103a390612d5f565b80601f01602080910402602001604051908101604052809291908181526020018280546103cf90612d5f565b801561041c5780601f106103f15761010080835404028352916020019161041c565b820191906000526020600020905b8154815290600101906020018083116103ff57829003601f168201915b5050505050815260200160048201805461043590612d5f565b80601f016020809104026020016040519081016040528092919081815260200182805461046190612d5f565b80156104ae5780601f10610483576101008083540402835291602001916104ae565b820191906000526020600020905b81548152906001019060200180831161049157829003601f168201915b5050505050815260200160058201548152602001600682015481526020016007820180546104db90612d5f565b80601f016020809104026020016040519081016040528092919081815260200182805461050790612d5f565b80156105545780601f1061052957610100808354040283529160200191610554565b820191906000526020600020905b81548152906001019060200180831161053757829003601f168201915b50505050508152602001600882018054806020026020016040519081016040528092919081815260200182805480156105e257602002820191906000526020600020905b8160009054906101000a900473ffffffffffffffffffffffffffffffffffffffff1673ffffffffffffffffffffffffffffffffffffffff1681526020019060010190808311610598575b50505050508152505090506040518060400160405280600781526020017f496e697469616c00000000000000000000000000000000000000000000000000815250805190602001208160e00151805190602001201461064057600080fd5b8060200151341461065057600080fd5b6000828154811061066457610663612d01565b5b9060005260206000209060090201600801339080600181540180825580915050600190039060005260206000200160009091909190916101000a81548173ffffffffffffffffffffffffffffffffffffffff021916908373ffffffffffffffffffffffffffffffffffffffff1602179055506040518060400160405280601281526020017f70617373656e6765725265717565737465640000000000000000000000000000815250600083815481106107205761071f612d01565b5b9060005260206000209060090201600701908051906020019061074492919061263a565b505050565b600080600083815481106107605761075f612d01565b5b9060005260206000209060090201604051806101200160405290816000820160009054906101000a900473ffffffffffffffffffffffffffffffffffffffff1673ffffffffffffffffffffffffffffffffffffffff1673ffffffffffffffffffffffffffffffffffffffff16815260200160018201548152602001600282015481526020016003820180546107f490612d5f565b80601f016020809104026020016040519081016040528092919081815260200182805461082090612d5f565b801561086d5780601f106108425761010080835404028352916020019161086d565b820191906000526020600020905b81548152906001019060200180831161085057829003601f168201915b5050505050815260200160048201805461088690612d5f565b80601f01602080910402602001604051908101604052809291908181526020018280546108b290612d5f565b80156108ff5780601f106108d4576101008083540402835291602001916108ff565b820191906000526020600020905b8154815290600101906020018083116108e257829003601f168201915b50505050508152602001600582015481526020016006820154815260200160078201805461092c90612d5f565b80601f016020809104026020016040519081016040528092919081815260200182805461095890612d5f565b80156109a55780601f1061097a576101008083540402835291602001916109a5565b820191906000526020600020905b81548152906001019060200180831161098857829003601f168201915b5050505050815260200160088201805480602002602001604051908101604052809291908181526020018280548015610a3357602002820191906000526020600020905b8160009054906101000a900473ffffffffffffffffffffffffffffffffffffffff1673ffffffffffffffffffffffffffffffffffffffff16815260200190600101908083116109e9575b5050505050815250509050806000015173ffffffffffffffffffffffffffffffffffffffff163373ffffffffffffffffffffffffffffffffffffffff1614610a7a57600080fd5b6040518060400160405280600781526020017f656e726f75746500000000000000000000000000000000000000000000000000815250805190602001208160e001518051906020012014610acd57600080fd5b806020015181610100015151610ae39190612dc0565b471015610aef57600080fd5b806000015173ffffffffffffffffffffffffffffffffffffffff166108fc826020015183610100015151610b239190612dc0565b9081150290604051600060405180830381858888f19350505050158015610b4e573d6000803e3d6000fd5b506040518060400160405280600981526020017f636f6d706c65746564000000000000000000000000000000000000000000000081525060008481548110610b9957610b98612d01565b5b90600052602060002090600902016007019080519060200190610bbd92919061263a565b506001915050919050565b6000808381548110610bdd57610bdc612d01565b5b9060005260206000209060090201604051806101200160405290816000820160009054906101000a900473ffffffffffffffffffffffffffffffffffffffff1673ffffffffffffffffffffffffffffffffffffffff1673ffffffffffffffffffffffffffffffffffffffff1681526020016001820154815260200160028201548152602001600382018054610c7190612d5f565b80601f0160208091040260200160405190810160405280929190818152602001828054610c9d90612d5f565b8015610cea5780601f10610cbf57610100808354040283529160200191610cea565b820191906000526020600020905b815481529060010190602001808311610ccd57829003601f168201915b50505050508152602001600482018054610d0390612d5f565b80601f0160208091040260200160405190810160405280929190818152602001828054610d2f90612d5f565b8015610d7c5780601f10610d5157610100808354040283529160200191610d7c565b820191906000526020600020905b815481529060010190602001808311610d5f57829003601f168201915b505050505081526020016005820154815260200160068201548152602001600782018054610da990612d5f565b80601f0160208091040260200160405190810160405280929190818152602001828054610dd590612d5f565b8015610e225780601f10610df757610100808354040283529160200191610e22565b820191906000526020600020905b815481529060010190602001808311610e0557829003601f168201915b5050505050815260200160088201805480602002602001604051908101604052809291908181526020018280548015610eb057602002820191906000526020600020905b8160009054906101000a900473ffffffffffffffffffffffffffffffffffffffff1673ffffffffffffffffffffffffffffffffffffffff1681526020019060010190808311610e66575b50505050508152505090506040518060400160405280600781526020017f496e697469616c00000000000000000000000000000000000000000000000000815250805190602001208160e001518051906020012014610f0e57600080fd5b806000015173ffffffffffffffffffffffffffffffffffffffff163373ffffffffffffffffffffffffffffffffffffffff1614610f4a57600080fd5b60005b81610100015151811015611031578273ffffffffffffffffffffffffffffffffffffffff168261010001518281518110610f8a57610f89612d01565b5b602002602001015173ffffffffffffffffffffffffffffffffffffffff16141561101e576040518060400160405280601281526020017f70617373656e676572436f6e6669726d6564000000000000000000000000000081525060008581548110610ff857610ff7612d01565b5b9060005260206000209060090201600701908051906020019061101c92919061263a565b505b808061102990612e1a565b915050610f4d565b50505050565b60606000828154811061104d5761104c612d01565b5b90600052602060002090600902016008018054806020026020016040519081016040528092919081815260200182805480156110de57602002820191906000526020600020905b8160009054906101000a900473ffffffffffffffffffffffffffffffffffffffff1673ffffffffffffffffffffffffffffffffffffffff1681526020019060010190808311611094575b50505050509050919050565b600080600060608060008060606000808a8154811061110c5761110b612d01565b5b9060005260206000209060090201604051806101200160405290816000820160009054906101000a900473ffffffffffffffffffffffffffffffffffffffff1673ffffffffffffffffffffffffffffffffffffffff1673ffffffffffffffffffffffffffffffffffffffff16815260200160018201548152602001600282015481526020016003820180546111a090612d5f565b80601f01602080910402602001604051908101604052809291908181526020018280546111cc90612d5f565b80156112195780601f106111ee57610100808354040283529160200191611219565b820191906000526020600020905b8154815290600101906020018083116111fc57829003601f168201915b5050505050815260200160048201805461123290612d5f565b80601f016020809104026020016040519081016040528092919081815260200182805461125e90612d5f565b80156112ab5780601f10611280576101008083540402835291602001916112ab565b820191906000526020600020905b81548152906001019060200180831161128e57829003601f168201915b5050505050815260200160058201548152602001600682015481526020016007820180546112d890612d5f565b80601f016020809104026020016040519081016040528092919081815260200182805461130490612d5f565b80156113515780601f1061132657610100808354040283529160200191611351565b820191906000526020600020905b81548152906001019060200180831161133457829003601f168201915b50505050508152602001600882018054806020026020016040519081016040528092919081815260200182805480156113df57602002820191906000526020600020905b8160009054906101000a900473ffffffffffffffffffffffffffffffffffffffff1673ffffffffffffffffffffffffffffffffffffffff1681526020019060010190808311611395575b5050505050815250509050806000015181602001518260400151836060015184608001518560a001518660c001518760e001519850985098509850985098509850985050919395975091939597565b60606000828154811061144457611443612d01565b5b9060005260206000209060090201600701805461146090612d5f565b80601f016020809104026020016040519081016040528092919081815260200182805461148c90612d5f565b80156114d95780601f106114ae576101008083540402835291602001916114d9565b820191906000526020600020905b8154815290600101906020018083116114bc57829003601f168201915b50505050509050919050565b6000806000905060005b60008054905081101561186157600080828154811061151157611510612d01565b5b9060005260206000209060090201604051806101200160405290816000820160009054906101000a900473ffffffffffffffffffffffffffffffffffffffff1673ffffffffffffffffffffffffffffffffffffffff1673ffffffffffffffffffffffffffffffffffffffff16815260200160018201548152602001600282015481526020016003820180546115a590612d5f565b80601f01602080910402602001604051908101604052809291908181526020018280546115d190612d5f565b801561161e5780601f106115f35761010080835404028352916020019161161e565b820191906000526020600020905b81548152906001019060200180831161160157829003601f168201915b5050505050815260200160048201805461163790612d5f565b80601f016020809104026020016040519081016040528092919081815260200182805461166390612d5f565b80156116b05780601f10611685576101008083540402835291602001916116b0565b820191906000526020600020905b81548152906001019060200180831161169357829003601f168201915b5050505050815260200160058201548152602001600682015481526020016007820180546116dd90612d5f565b80601f016020809104026020016040519081016040528092919081815260200182805461170990612d5f565b80156117565780601f1061172b57610100808354040283529160200191611756565b820191906000526020600020905b81548152906001019060200180831161173957829003601f168201915b50505050508152602001600882018054806020026020016040519081016040528092919081815260200182805480156117e457602002820191906000526020600020905b8160009054906101000a900473ffffffffffffffffffffffffffffffffffffffff1673ffffffffffffffffffffffffffffffffffffffff168152602001906001019080831161179a575b50505050508152505090506040518060400160405280600781526020017f496e697469616c00000000000000000000000000000000000000000000000000815250805190602001208160e0015180519060200120141561184d57828061184990612e1a565b9350505b50808061185990612e1a565b9150506114ef565b508091505090565b60008080549050905090565b600080828154811061188a57611889612d01565b5b9060005260206000209060090201604051806101200160405290816000820160009054906101000a900473ffffffffffffffffffffffffffffffffffffffff1673ffffffffffffffffffffffffffffffffffffffff1673ffffffffffffffffffffffffffffffffffffffff168152602001600182015481526020016002820154815260200160038201805461191e90612d5f565b80601f016020809104026020016040519081016040528092919081815260200182805461194a90612d5f565b80156119975780601f1061196c57610100808354040283529160200191611997565b820191906000526020600020905b81548152906001019060200180831161197a57829003601f168201915b505050505081526020016004820180546119b090612d5f565b80601f01602080910402602001604051908101604052809291908181526020018280546119dc90612d5f565b8015611a295780601f106119fe57610100808354040283529160200191611a29565b820191906000526020600020905b815481529060010190602001808311611a0c57829003601f168201915b505050505081526020016005820154815260200160068201548152602001600782018054611a5690612d5f565b80601f0160208091040260200160405190810160405280929190818152602001828054611a8290612d5f565b8015611acf5780601f10611aa457610100808354040283529160200191611acf565b820191906000526020600020905b815481529060010190602001808311611ab257829003601f168201915b5050505050815260200160088201805480602002602001604051908101604052809291908181526020018280548015611b5d57602002820191906000526020600020905b8160009054906101000a900473ffffffffffffffffffffffffffffffffffffffff1673ffffffffffffffffffffffffffffffffffffffff1681526020019060010190808311611b13575b5050505050815250509050806000015173ffffffffffffffffffffffffffffffffffffffff163373ffffffffffffffffffffffffffffffffffffffff1614611ba457600080fd5b6040518060400160405280600781526020017f496e697469616c00000000000000000000000000000000000000000000000000815250805190602001208160e001518051906020012014611bf757600080fd5b47816020015182610100015151611c0e9190612dc0565b1115611c1957600080fd5b60005b81610100015151811015611ca7578161010001518181518110611c4257611c41612d01565b5b602002602001015173ffffffffffffffffffffffffffffffffffffffff166108fc83602001519081150290604051600060405180830381858888f19350505050158015611c93573d6000803e3d6000fd5b508080611c9f90612e1a565b915050611c1c565b506040518060400160405280600981526020017f43616e63656c6c6564000000000000000000000000000000000000000000000081525060008381548110611cf257611cf1612d01565b5b90600052602060002090600902016007019080519060200190611d1692919061263a565b505050565b60008060008481548110611d3257611d31612d01565b5b9060005260206000209060090201604051806101200160405290816000820160009054906101000a900473ffffffffffffffffffffffffffffffffffffffff1673ffffffffffffffffffffffffffffffffffffffff1673ffffffffffffffffffffffffffffffffffffffff1681526020016001820154815260200160028201548152602001600382018054611dc690612d5f565b80601f0160208091040260200160405190810160405280929190818152602001828054611df290612d5f565b8015611e3f5780601f10611e1457610100808354040283529160200191611e3f565b820191906000526020600020905b815481529060010190602001808311611e2257829003601f168201915b50505050508152602001600482018054611e5890612d5f565b80601f0160208091040260200160405190810160405280929190818152602001828054611e8490612d5f565b8015611ed15780601f10611ea657610100808354040283529160200191611ed1565b820191906000526020600020905b815481529060010190602001808311611eb457829003601f168201915b505050505081526020016005820154815260200160068201548152602001600782018054611efe90612d5f565b80601f0160208091040260200160405190810160405280929190818152602001828054611f2a90612d5f565b8015611f775780601f10611f4c57610100808354040283529160200191611f77565b820191906000526020600020905b815481529060010190602001808311611f5a57829003601f168201915b505050505081526020016008820180548060200260200160405190810160405280929190818152602001828054801561200557602002820191906000526020600020905b8160009054906101000a900473ffffffffffffffffffffffffffffffffffffffff1673ffffffffffffffffffffffffffffffffffffffff1681526020019060010190808311611fbb575b505050505081525050905060005b81610100015151811015612092578373ffffffffffffffffffffffffffffffffffffffff1682610100015182815181106120505761204f612d01565b5b602002602001015173ffffffffffffffffffffffffffffffffffffffff16141561207f57600192505050612099565b808061208a90612e1a565b915050612013565b5060009150505b92915050565b60008082815481106120b4576120b3612d01565b5b9060005260206000209060090201604051806101200160405290816000820160009054906101000a900473ffffffffffffffffffffffffffffffffffffffff1673ffffffffffffffffffffffffffffffffffffffff1673ffffffffffffffffffffffffffffffffffffffff168152602001600182015481526020016002820154815260200160038201805461214890612d5f565b80601f016020809104026020016040519081016040528092919081815260200182805461217490612d5f565b80156121c15780601f10612196576101008083540402835291602001916121c1565b820191906000526020600020905b8154815290600101906020018083116121a457829003601f168201915b505050505081526020016004820180546121da90612d5f565b80601f016020809104026020016040519081016040528092919081815260200182805461220690612d5f565b80156122535780601f1061222857610100808354040283529160200191612253565b820191906000526020600020905b81548152906001019060200180831161223657829003601f168201915b50505050508152602001600582015481526020016006820154815260200160078201805461228090612d5f565b80601f01602080910402602001604051908101604052809291908181526020018280546122ac90612d5f565b80156122f95780601f106122ce576101008083540402835291602001916122f9565b820191906000526020600020905b8154815290600101906020018083116122dc57829003601f168201915b505050505081526020016008820180548060200260200160405190810160405280929190818152602001828054801561238757602002820191906000526020600020905b8160009054906101000a900473ffffffffffffffffffffffffffffffffffffffff1673ffffffffffffffffffffffffffffffffffffffff168152602001906001019080831161233d575b5050505050815250509050806000015173ffffffffffffffffffffffffffffffffffffffff163373ffffffffffffffffffffffffffffffffffffffff16146123ce57600080fd5b6040518060400160405280600781526020017f496e697469616c00000000000000000000000000000000000000000000000000815250805190602001208160e00151805190602001201461242157600080fd5b6040518060400160405280600781526020017f656e726f757465000000000000000000000000000000000000000000000000008152506000838154811061246b5761246a612d01565b5b9060005260206000209060090201600701908051906020019061248f92919061263a565b505050565b606060006040518061012001604052803373ffffffffffffffffffffffffffffffffffffffff1681526020018881526020018781526020018681526020018581526020014281526020018481526020016040518060400160405280600781526020017f496e697469616c00000000000000000000000000000000000000000000000000815250815260200183815250908060018154018082558091505060019003906000526020600020906009020160009091909190915060008201518160000160006101000a81548173ffffffffffffffffffffffffffffffffffffffff021916908373ffffffffffffffffffffffffffffffffffffffff160217905550602082015181600101556040820151816002015560608201518160030190805190602001906125c392919061263a565b5060808201518160040190805190602001906125e092919061263a565b5060a0820151816005015560c0820151816006015560e082015181600701908051906020019061261192919061263a565b5061010082015181600801908051906020019061262f9291906126c0565b505050505050505050565b82805461264690612d5f565b90600052602060002090601f01602090048101928261266857600085556126af565b82601f1061268157805160ff19168380011785556126af565b828001600101855582156126af579182015b828111156126ae578251825591602001919060010190612693565b5b5090506126bc919061274a565b5090565b828054828255906000526020600020908101928215612739579160200282015b828111156127385782518260006101000a81548173ffffffffffffffffffffffffffffffffffffffff021916908373ffffffffffffffffffffffffffffffffffffffff160217905550916020019190600101906126e0565b5b509050612746919061274a565b5090565b5b8082111561276357600081600090555060010161274b565b5090565b6000604051905090565b600080fd5b600080fd5b6000819050919050565b61278e8161277b565b811461279957600080fd5b50565b6000813590506127ab81612785565b92915050565b6000602082840312156127c7576127c6612771565b5b60006127d58482850161279c565b91505092915050565b60008115159050919050565b6127f3816127de565b82525050565b600060208201905061280e60008301846127ea565b92915050565b600073ffffffffffffffffffffffffffffffffffffffff82169050919050565b600061283f82612814565b9050919050565b61284f81612834565b811461285a57600080fd5b50565b60008135905061286c81612846565b92915050565b6000806040838503121561288957612888612771565b5b60006128978582860161279c565b92505060206128a88582860161285d565b9150509250929050565b600081519050919050565b600082825260208201905092915050565b6000819050602082019050919050565b6128e781612834565b82525050565b60006128f983836128de565b60208301905092915050565b6000602082019050919050565b600061291d826128b2565b61292781856128bd565b9350612932836128ce565b8060005b8381101561296357815161294a88826128ed565b975061295583612905565b925050600181019050612936565b5085935050505092915050565b6000602082019050818103600083015261298a8184612912565b905092915050565b61299b81612834565b82525050565b6129aa8161277b565b82525050565b600081519050919050565b600082825260208201905092915050565b60005b838110156129ea5780820151818401526020810190506129cf565b838111156129f9576000848401525b50505050565b6000601f19601f8301169050919050565b6000612a1b826129b0565b612a2581856129bb565b9350612a358185602086016129cc565b612a3e816129ff565b840191505092915050565b600061010082019050612a5f600083018b612992565b612a6c602083018a6129a1565b612a7960408301896129a1565b8181036060830152612a8b8188612a10565b90508181036080830152612a9f8187612a10565b9050612aae60a08301866129a1565b612abb60c08301856129a1565b81810360e0830152612acd8184612a10565b90509998505050505050505050565b60006020820190508181036000830152612af68184612a10565b905092915050565b6000602082019050612b1360008301846129a1565b92915050565b600080fd5b600080fd5b7f4e487b7100000000000000000000000000000000000000000000000000000000600052604160045260246000fd5b612b5b826129ff565b810181811067ffffffffffffffff82111715612b7a57612b79612b23565b5b80604052505050565b6000612b8d612767565b9050612b998282612b52565b919050565b600067ffffffffffffffff821115612bb957612bb8612b23565b5b612bc2826129ff565b9050602081019050919050565b82818337600083830152505050565b6000612bf1612bec84612b9e565b612b83565b905082815260208101848484011115612c0d57612c0c612b1e565b5b612c18848285612bcf565b509392505050565b600082601f830112612c3557612c34612b19565b5b8135612c45848260208601612bde565b91505092915050565b600080600080600060a08688031215612c6a57612c69612771565b5b6000612c788882890161279c565b9550506020612c898882890161279c565b945050604086013567ffffffffffffffff811115612caa57612ca9612776565b5b612cb688828901612c20565b935050606086013567ffffffffffffffff811115612cd757612cd6612776565b5b612ce388828901612c20565b9250506080612cf48882890161279c565b9150509295509295909350565b7f4e487b7100000000000000000000000000000000000000000000000000000000600052603260045260246000fd5b7f4e487b7100000000000000000000000000000000000000000000000000000000600052602260045260246000fd5b60006002820490506001821680612d7757607f821691505b60208210811415612d8b57612d8a612d30565b5b50919050565b7f4e487b7100000000000000000000000000000000000000000000000000000000600052601160045260246000fd5b6000612dcb8261277b565b9150612dd68361277b565b9250817fffffffffffffffffffffffffffffffffffffffffffffffffffffffffffffffff0483118215151615612e0f57612e0e612d91565b5b828202905092915050565b6000612e258261277b565b91507fffffffffffffffffffffffffffffffffffffffffffffffffffffffffffffffff821415612e5857612e57612d91565b5b60018201905091905056fea26469706673582212204c8a720eaebb4df483301ed1f2169cf3df8e5bb910aada624009d5628395121164736f6c634300080c0033",
  "immutableReferences": {},
  "source": "// SPDX-License-Identifier: GPL-3.0\r\n\r\npragma solidity >=0.5.0 <=0.9.0;\r\n// import \"./Transfer.sol\";\r\n\r\ncontract Rideshare {\r\n    struct Ride{\r\n        address driver;\r\n        uint drivingCost;\r\n        uint capacity;\r\n        string originAddress;\r\n        string destAddress;\r\n        uint createdAt;\r\n        uint departAt;\r\n        string rideStatus;\r\n        // mapping (address => string) rideStatus;\r\n        address[] passengerAccts;\r\n    }\r\n\r\n    Ride[]  rides;\r\n    // uint public rideCount;\r\n\r\n    // points will be given on successful completition of ride as a reputation\r\n    mapping (address => uint) reputationPoints;\r\n\r\n    // user can create ride  ---- called by driver\r\n    function createRide( uint _driverCost, uint _capacity, string memory _originAddress, string memory _destAddress, uint _departAt) public\r\n    {\r\n       address[] memory _passengerAccts;\r\n       rides.push(Ride(msg.sender, _driverCost, _capacity, _originAddress, _destAddress, block.timestamp, _departAt,\"Initial\", _passengerAccts));\r\n    }\r\n\r\n    // called by passenger to send request to join ride --- called by passenger\r\n    function joinRide(uint rideNumber) public payable{\r\n        Ride memory curRide = rides[rideNumber];\r\n\r\n        //ride should not be started to join ride by passenger\r\n        require(keccak256(bytes(curRide.rideStatus)) == keccak256(bytes(\"Initial\")));\r\n        require(msg.value == curRide.drivingCost);\r\n        rides[rideNumber].passengerAccts.push(msg.sender);\r\n        rides[rideNumber].rideStatus = \"passengerRequested\";\r\n\r\n    }\r\n\r\n    // get list of all passenger in given ride\r\n    function getPassengers(uint rideNumber) view public returns(address[] memory) {\r\n        return rides[rideNumber].passengerAccts;\r\n    }\r\n    \r\n    // get ride status of given ride\r\n    function getRideStatus(uint rideNumber) view public returns(string memory) {\r\n    return rides[rideNumber].rideStatus;\r\n    }\r\n\r\n    // get rides from all ride by id of rides\r\n    function getRide(uint rideNumber) public view returns ( address, uint, uint, string memory, string memory, uint, uint, string memory) {\r\n    Ride memory ride = rides[rideNumber];\r\n    return (\r\n      ride.driver,\r\n      ride.drivingCost,\r\n      ride.capacity,\r\n      ride.originAddress,\r\n      ride.destAddress,\r\n      ride.createdAt,\r\n      ride.departAt,\r\n      ride.rideStatus\r\n\r\n      );\r\n    }\r\n\r\n    // get total available ride count\r\n    function getAvailableRideCount() public view returns(uint) {\r\n        uint rideCount=0;\r\n        for (uint i=0;i<rides.length;i++){\r\n                Ride memory curRide = rides[i];\r\n                if(keccak256(bytes(curRide.rideStatus)) == keccak256(bytes(\"Initial\"))){\r\n                    rideCount++;\r\n                } \r\n\r\n        }\r\n    return rideCount;\r\n    }\r\n    \r\n    // get total ride count\r\n    function getTotalRideCount() public view returns(uint){\r\n        return rides.length;\r\n    }\r\n\r\n    // check is passenger is in ride or not \r\n    function passengerInRide(uint rideNumber, address passengerAcct) public view returns (bool) {\r\n    Ride memory curRide = rides[rideNumber];\r\n    for(uint i = 0; i < curRide.passengerAccts.length; i++) {\r\n      if (curRide.passengerAccts[i] == passengerAcct) {\r\n        return true;\r\n        }\r\n      }\r\n    return false;\r\n    }\r\n\r\n    // Done--- TO-DO - ride cancelled by the driver, transfer money back to all account ---- called by driver\r\n    function cancelRide(uint _rideNumber) public{\r\n        Ride memory curRide = rides[_rideNumber];\r\n        require(msg.sender == curRide.driver);\r\n        require(keccak256(bytes(curRide.rideStatus)) == keccak256(bytes(\"Initial\")));\r\n        require(curRide.passengerAccts.length*curRide.drivingCost <= address(this).balance);\r\n        for(uint i=0; i < curRide.passengerAccts.length; i++) {\r\n            payable(curRide.passengerAccts[i]).transfer(curRide.drivingCost);\r\n        }\r\n        rides[_rideNumber].rideStatus = \"Cancelled\";\r\n\r\n    }\r\n\r\n    \r\n\r\n    // To-Do - create function to start ride and change ride status to enRoute ----- called by driver\r\n    function startRide(uint _rideNumber) public{\r\n        Ride memory curRide = rides[_rideNumber];\r\n        require(msg.sender == curRide.driver);\r\n        require(keccak256(bytes(curRide.rideStatus)) == keccak256(bytes(\"Initial\")));\r\n        rides[_rideNumber].rideStatus = \"enroute\";\r\n    }\r\n    \r\n    // Done -----To-Do - When ride is completed, passenger will call the function and change ride status to completed and amount from contract to driver account will be transferred.\r\n    function endRide(uint _rideNumber) public returns(bool){\r\n        Ride memory curRide = rides[_rideNumber];\r\n        require(msg.sender == curRide.driver);\r\n        require(keccak256(bytes(curRide.rideStatus)) == keccak256(bytes(\"enroute\")));\r\n        require(address(this).balance>=curRide.passengerAccts.length*curRide.drivingCost);\r\n        payable(curRide.driver).transfer(curRide.passengerAccts.length*curRide.drivingCost);\r\n        rides[_rideNumber].rideStatus = \"completed\";\r\n        return true;\r\n    }\r\n\r\n    \r\n    \r\n\r\n   // accept passenger's request to ride --- called by driver\r\n    function acceptPassengerRequest(uint rideNumber, address passengerAddress) public {\r\n    Ride memory curRide = rides[rideNumber];\r\n    require(keccak256(bytes(curRide.rideStatus)) == keccak256(bytes(\"Initial\")));\r\n    require(msg.sender == curRide.driver);\r\n    for(uint i=0; i < curRide.passengerAccts.length; i++) {\r\n       if ( curRide.passengerAccts[i] == passengerAddress) {\r\n        rides[rideNumber].rideStatus = \"passengerConfirmed\";\r\n        }\r\n      }\r\n    }\r\n\r\n\r\n}\r\n\r\n\r\n\r\n",
  "sourcePath": "F:\\4th Year\\Final_Year_Project\\Main-project\\contracts\\RideShare.sol",
  "compiler": {
    "name": "solc",
    "version": "0.8.12+commit.f00d7308.Emscripten.clang"
  },
  "schemaVersion": "3.4.6",
  "updatedAt": "2022-04-17T11:09:19.625Z",
  "networkType": "ethereum",
  "devdoc": {
    "kind": "dev",
    "methods": {},
    "version": 1
  },
  "userdoc": {
    "kind": "user",
    "methods": {},
    "version": 1
  }
}