{
  "contractName": "Rideshare",
  "abi": [
    {
      "inputs": [
        {
          "internalType": "uint256",
          "name": "_driverCost",
          "type": "uint256"
        },
        {
          "internalType": "uint256",
          "name": "_capacity",
          "type": "uint256"
        },
        {
          "internalType": "string",
          "name": "_originAddress",
          "type": "string"
        },
        {
          "internalType": "string",
          "name": "_destAddress",
          "type": "string"
        },
        {
          "internalType": "uint256",
          "name": "_departAt",
          "type": "uint256"
        }
      ],
      "name": "createRide",
      "outputs": [],
      "stateMutability": "nonpayable",
      "type": "function"
    },
    {
      "inputs": [
        {
          "internalType": "uint256",
          "name": "rideNumber",
          "type": "uint256"
        }
      ],
      "name": "joinRide",
      "outputs": [],
      "stateMutability": "payable",
      "type": "function",
      "payable": true
    },
    {
      "inputs": [],
      "name": "getContractBalance",
      "outputs": [
        {
          "internalType": "uint256",
          "name": "",
          "type": "uint256"
        }
      ],
      "stateMutability": "view",
      "type": "function",
      "constant": true
    },
    {
      "inputs": [
        {
          "internalType": "uint256",
          "name": "rideNumber",
          "type": "uint256"
        }
      ],
      "name": "getPassengers",
      "outputs": [
        {
          "internalType": "address[]",
          "name": "",
          "type": "address[]"
        }
      ],
      "stateMutability": "view",
      "type": "function",
      "constant": true
    },
    {
      "inputs": [
        {
          "internalType": "uint256",
          "name": "rideNumber",
          "type": "uint256"
        }
      ],
      "name": "getRideStatus",
      "outputs": [
        {
          "internalType": "string",
          "name": "",
          "type": "string"
        }
      ],
      "stateMutability": "view",
      "type": "function",
      "constant": true
    },
    {
      "inputs": [
        {
          "internalType": "uint256",
          "name": "rideNumber",
          "type": "uint256"
        }
      ],
      "name": "getRide",
      "outputs": [
        {
          "internalType": "address",
          "name": "",
          "type": "address"
        },
        {
          "internalType": "uint256",
          "name": "",
          "type": "uint256"
        },
        {
          "internalType": "uint256",
          "name": "",
          "type": "uint256"
        },
        {
          "internalType": "string",
          "name": "",
          "type": "string"
        },
        {
          "internalType": "string",
          "name": "",
          "type": "string"
        },
        {
          "internalType": "uint256",
          "name": "",
          "type": "uint256"
        },
        {
          "internalType": "uint256",
          "name": "",
          "type": "uint256"
        },
        {
          "internalType": "string",
          "name": "",
          "type": "string"
        },
        {
          "internalType": "address[]",
          "name": "",
          "type": "address[]"
        }
      ],
      "stateMutability": "view",
      "type": "function",
      "constant": true
    },
    {
      "inputs": [],
      "name": "getAvailableRideCount",
      "outputs": [
        {
          "internalType": "uint256",
          "name": "",
          "type": "uint256"
        }
      ],
      "stateMutability": "view",
      "type": "function",
      "constant": true
    },
    {
      "inputs": [],
      "name": "getEnrouteRideCount",
      "outputs": [
        {
          "internalType": "uint256",
          "name": "",
          "type": "uint256"
        }
      ],
      "stateMutability": "view",
      "type": "function",
      "constant": true
    },
    {
      "inputs": [],
      "name": "getCompletedRideCount",
      "outputs": [
        {
          "internalType": "uint256",
          "name": "",
          "type": "uint256"
        }
      ],
      "stateMutability": "view",
      "type": "function",
      "constant": true
    },
    {
      "inputs": [],
      "name": "getTotalRideCount",
      "outputs": [
        {
          "internalType": "uint256",
          "name": "",
          "type": "uint256"
        }
      ],
      "stateMutability": "view",
      "type": "function",
      "constant": true
    },
    {
      "inputs": [
        {
          "internalType": "uint256",
          "name": "rideNumber",
          "type": "uint256"
        },
        {
          "internalType": "address",
          "name": "passengerAcct",
          "type": "address"
        }
      ],
      "name": "passengerInRide",
      "outputs": [
        {
          "internalType": "bool",
          "name": "",
          "type": "bool"
        }
      ],
      "stateMutability": "view",
      "type": "function",
      "constant": true
    },
    {
      "inputs": [
        {
          "internalType": "uint256",
          "name": "_rideNumber",
          "type": "uint256"
        }
      ],
      "name": "cancelRide",
      "outputs": [],
      "stateMutability": "nonpayable",
      "type": "function"
    },
    {
      "inputs": [
        {
          "internalType": "uint256",
          "name": "_rideNumber",
          "type": "uint256"
        }
      ],
      "name": "startRide",
      "outputs": [],
      "stateMutability": "nonpayable",
      "type": "function"
    },
    {
      "inputs": [
        {
          "internalType": "uint256",
          "name": "_rideNumber",
          "type": "uint256"
        }
      ],
      "name": "endRide",
      "outputs": [
        {
          "internalType": "bool",
          "name": "",
          "type": "bool"
        }
      ],
      "stateMutability": "nonpayable",
      "type": "function"
    },
    {
      "inputs": [
        {
          "internalType": "uint256",
          "name": "rideNumber",
          "type": "uint256"
        },
        {
          "internalType": "address",
          "name": "passengerAddress",
          "type": "address"
        }
      ],
      "name": "acceptPassengerRequest",
      "outputs": [],
      "stateMutability": "nonpayable",
      "type": "function"
    }
  ],
  "bytecode": "0x608060405234801561001057600080fd5b5061367f806100206000396000f3fe6080604052600436106100e85760003560e01c806390f1b7cf1161008a578063aa699a7e11610059578063aa699a7e14610303578063c4ef54d61461032e578063e9c14b1e1461036b578063f98b677814610394576100e8565b806390f1b7cf146102595780639589fe9b146102845780639e156f2d146102af578063a6f07b29146102da576100e8565b80636d4d31f2116100c65780636d4d31f21461016f5780636f9fb98a146101ac5780637c7b0ff4146101d75780638743e1d31461021c576100e8565b806301f32206146100ed57806350a548fc146101095780635b3f1cb114610146575b600080fd5b61010760048036038101906101029190612f81565b6103bd565b005b34801561011557600080fd5b50610130600480360381019061012b9190612f81565b61080d565b60405161013d9190612fc9565b60405180910390f35b34801561015257600080fd5b5061016d60048036038101906101689190613042565b610cb6565b005b34801561017b57600080fd5b5061019660048036038101906101919190612f81565b611125565b6040516101a39190613140565b60405180910390f35b3480156101b857600080fd5b506101c16111d8565b6040516101ce9190613171565b60405180910390f35b3480156101e357600080fd5b506101fe60048036038101906101f99190612f81565b6111e0565b60405161021399989796959493929190613234565b60405180910390f35b34801561022857600080fd5b50610243600480360381019061023e9190612f81565b61152f565b60405161025091906132dd565b60405180910390f35b34801561026557600080fd5b5061026e6115e6565b60405161027b9190613171565b60405180910390f35b34801561029057600080fd5b5061029961196a565b6040516102a69190613171565b60405180910390f35b3480156102bb57600080fd5b506102c4611cee565b6040516102d19190613171565b60405180910390f35b3480156102e657600080fd5b5061030160048036038101906102fc9190612f81565b611cfa565b005b34801561030f57600080fd5b506103186121ba565b6040516103259190613171565b60405180910390f35b34801561033a57600080fd5b5061035560048036038101906103509190613042565b61253e565b6040516103629190612fc9565b60405180910390f35b34801561037757600080fd5b50610392600480360381019061038d9190612f81565b6128c2565b005b3480156103a057600080fd5b506103bb60048036038101906103b69190613434565b612c64565b005b60008082815481106103d2576103d16134e7565b5b9060005260206000209060090201604051806101200160405290816000820160009054906101000a900473ffffffffffffffffffffffffffffffffffffffff1673ffffffffffffffffffffffffffffffffffffffff1673ffffffffffffffffffffffffffffffffffffffff168152602001600182015481526020016002820154815260200160038201805461046690613545565b80601f016020809104026020016040519081016040528092919081815260200182805461049290613545565b80156104df5780601f106104b4576101008083540402835291602001916104df565b820191906000526020600020905b8154815290600101906020018083116104c257829003601f168201915b505050505081526020016004820180546104f890613545565b80601f016020809104026020016040519081016040528092919081815260200182805461052490613545565b80156105715780601f1061054657610100808354040283529160200191610571565b820191906000526020600020905b81548152906001019060200180831161055457829003601f168201915b50505050508152602001600582015481526020016006820154815260200160078201805461059e90613545565b80601f01602080910402602001604051908101604052809291908181526020018280546105ca90613545565b80156106175780601f106105ec57610100808354040283529160200191610617565b820191906000526020600020905b8154815290600101906020018083116105fa57829003601f168201915b50505050508152602001600882018054806020026020016040519081016040528092919081815260200182805480156106a557602002820191906000526020600020905b8160009054906101000a900473ffffffffffffffffffffffffffffffffffffffff1673ffffffffffffffffffffffffffffffffffffffff168152602001906001019080831161065b575b50505050508152505090506040518060400160405280600781526020017f496e697469616c00000000000000000000000000000000000000000000000000815250805190602001208160e00151805190602001201461070357600080fd5b806020015134101561071457600080fd5b60008281548110610728576107276134e7565b5b9060005260206000209060090201600801339080600181540180825580915050600190039060005260206000200160009091909190916101000a81548173ffffffffffffffffffffffffffffffffffffffff021916908373ffffffffffffffffffffffffffffffffffffffff1602179055506040518060400160405280601281526020017f70617373656e6765725265717565737465640000000000000000000000000000815250600083815481106107e4576107e36134e7565b5b90600052602060002090600902016007019080519060200190610808929190612e0a565b505050565b60008060008381548110610824576108236134e7565b5b9060005260206000209060090201604051806101200160405290816000820160009054906101000a900473ffffffffffffffffffffffffffffffffffffffff1673ffffffffffffffffffffffffffffffffffffffff1673ffffffffffffffffffffffffffffffffffffffff16815260200160018201548152602001600282015481526020016003820180546108b890613545565b80601f01602080910402602001604051908101604052809291908181526020018280546108e490613545565b80156109315780601f1061090657610100808354040283529160200191610931565b820191906000526020600020905b81548152906001019060200180831161091457829003601f168201915b5050505050815260200160048201805461094a90613545565b80601f016020809104026020016040519081016040528092919081815260200182805461097690613545565b80156109c35780601f10610998576101008083540402835291602001916109c3565b820191906000526020600020905b8154815290600101906020018083116109a657829003601f168201915b5050505050815260200160058201548152602001600682015481526020016007820180546109f090613545565b80601f0160208091040260200160405190810160405280929190818152602001828054610a1c90613545565b8015610a695780601f10610a3e57610100808354040283529160200191610a69565b820191906000526020600020905b815481529060010190602001808311610a4c57829003601f168201915b5050505050815260200160088201805480602002602001604051908101604052809291908181526020018280548015610af757602002820191906000526020600020905b8160009054906101000a900473ffffffffffffffffffffffffffffffffffffffff1673ffffffffffffffffffffffffffffffffffffffff1681526020019060010190808311610aad575b50505050508152505090506000816101000151511115610b4f57806000015173ffffffffffffffffffffffffffffffffffffffff163373ffffffffffffffffffffffffffffffffffffffff161415610b4e57600080fd5b5b6040518060400160405280600781526020017f656e726f75746500000000000000000000000000000000000000000000000000815250805190602001208160e001518051906020012014610ba257600080fd5b806020015181610100015151610bb891906135a6565b471015610bc457600080fd5b6000670de0b6b3a7640000826020015183610100015151610be591906135a6565b610bef91906135a6565b9050816000015173ffffffffffffffffffffffffffffffffffffffff166108fc829081150290604051600060405180830381858888f19350505050158015610c3b573d6000803e3d6000fd5b506040518060400160405280600981526020017f636f6d706c65746564000000000000000000000000000000000000000000000081525060008581548110610c8657610c856134e7565b5b90600052602060002090600902016007019080519060200190610caa929190612e0a565b50600192505050919050565b6000808381548110610ccb57610cca6134e7565b5b9060005260206000209060090201604051806101200160405290816000820160009054906101000a900473ffffffffffffffffffffffffffffffffffffffff1673ffffffffffffffffffffffffffffffffffffffff1673ffffffffffffffffffffffffffffffffffffffff1681526020016001820154815260200160028201548152602001600382018054610d5f90613545565b80601f0160208091040260200160405190810160405280929190818152602001828054610d8b90613545565b8015610dd85780601f10610dad57610100808354040283529160200191610dd8565b820191906000526020600020905b815481529060010190602001808311610dbb57829003601f168201915b50505050508152602001600482018054610df190613545565b80601f0160208091040260200160405190810160405280929190818152602001828054610e1d90613545565b8015610e6a5780601f10610e3f57610100808354040283529160200191610e6a565b820191906000526020600020905b815481529060010190602001808311610e4d57829003601f168201915b505050505081526020016005820154815260200160068201548152602001600782018054610e9790613545565b80601f0160208091040260200160405190810160405280929190818152602001828054610ec390613545565b8015610f105780601f10610ee557610100808354040283529160200191610f10565b820191906000526020600020905b815481529060010190602001808311610ef357829003601f168201915b5050505050815260200160088201805480602002602001604051908101604052809291908181526020018280548015610f9e57602002820191906000526020600020905b8160009054906101000a900473ffffffffffffffffffffffffffffffffffffffff1673ffffffffffffffffffffffffffffffffffffffff1681526020019060010190808311610f54575b50505050508152505090506040518060400160405280601281526020017f70617373656e6765725265717565737465640000000000000000000000000000815250805190602001208160e001518051906020012014610ffc57600080fd5b806000015173ffffffffffffffffffffffffffffffffffffffff163373ffffffffffffffffffffffffffffffffffffffff161461103857600080fd5b60005b8161010001515181101561111f578273ffffffffffffffffffffffffffffffffffffffff168261010001518281518110611078576110776134e7565b5b602002602001015173ffffffffffffffffffffffffffffffffffffffff16141561110c576040518060400160405280601281526020017f70617373656e676572436f6e6669726d65640000000000000000000000000000815250600085815481106110e6576110e56134e7565b5b9060005260206000209060090201600701908051906020019061110a929190612e0a565b505b808061111790613600565b91505061103b565b50505050565b60606000828154811061113b5761113a6134e7565b5b90600052602060002090600902016008018054806020026020016040519081016040528092919081815260200182805480156111cc57602002820191906000526020600020905b8160009054906101000a900473ffffffffffffffffffffffffffffffffffffffff1673ffffffffffffffffffffffffffffffffffffffff1681526020019060010190808311611182575b50505050509050919050565b600047905090565b60008060006060806000806060806000808b81548110611203576112026134e7565b5b9060005260206000209060090201604051806101200160405290816000820160009054906101000a900473ffffffffffffffffffffffffffffffffffffffff1673ffffffffffffffffffffffffffffffffffffffff1673ffffffffffffffffffffffffffffffffffffffff168152602001600182015481526020016002820154815260200160038201805461129790613545565b80601f01602080910402602001604051908101604052809291908181526020018280546112c390613545565b80156113105780601f106112e557610100808354040283529160200191611310565b820191906000526020600020905b8154815290600101906020018083116112f357829003601f168201915b5050505050815260200160048201805461132990613545565b80601f016020809104026020016040519081016040528092919081815260200182805461135590613545565b80156113a25780601f10611377576101008083540402835291602001916113a2565b820191906000526020600020905b81548152906001019060200180831161138557829003601f168201915b5050505050815260200160058201548152602001600682015481526020016007820180546113cf90613545565b80601f01602080910402602001604051908101604052809291908181526020018280546113fb90613545565b80156114485780601f1061141d57610100808354040283529160200191611448565b820191906000526020600020905b81548152906001019060200180831161142b57829003601f168201915b50505050508152602001600882018054806020026020016040519081016040528092919081815260200182805480156114d657602002820191906000526020600020905b8160009054906101000a900473ffffffffffffffffffffffffffffffffffffffff1673ffffffffffffffffffffffffffffffffffffffff168152602001906001019080831161148c575b5050505050815250509050806000015181602001518260400151836060015184608001518560a001518660c001518760e00151886101000151995099509950995099509950995099509950509193959799909294969850565b606060008281548110611545576115446134e7565b5b9060005260206000209060090201600701805461156190613545565b80601f016020809104026020016040519081016040528092919081815260200182805461158d90613545565b80156115da5780601f106115af576101008083540402835291602001916115da565b820191906000526020600020905b8154815290600101906020018083116115bd57829003601f168201915b50505050509050919050565b6000806000905060005b600080549050811015611962576000808281548110611612576116116134e7565b5b9060005260206000209060090201604051806101200160405290816000820160009054906101000a900473ffffffffffffffffffffffffffffffffffffffff1673ffffffffffffffffffffffffffffffffffffffff1673ffffffffffffffffffffffffffffffffffffffff16815260200160018201548152602001600282015481526020016003820180546116a690613545565b80601f01602080910402602001604051908101604052809291908181526020018280546116d290613545565b801561171f5780601f106116f45761010080835404028352916020019161171f565b820191906000526020600020905b81548152906001019060200180831161170257829003601f168201915b5050505050815260200160048201805461173890613545565b80601f016020809104026020016040519081016040528092919081815260200182805461176490613545565b80156117b15780601f10611786576101008083540402835291602001916117b1565b820191906000526020600020905b81548152906001019060200180831161179457829003601f168201915b5050505050815260200160058201548152602001600682015481526020016007820180546117de90613545565b80601f016020809104026020016040519081016040528092919081815260200182805461180a90613545565b80156118575780601f1061182c57610100808354040283529160200191611857565b820191906000526020600020905b81548152906001019060200180831161183a57829003601f168201915b50505050508152602001600882018054806020026020016040519081016040528092919081815260200182805480156118e557602002820191906000526020600020905b8160009054906101000a900473ffffffffffffffffffffffffffffffffffffffff1673ffffffffffffffffffffffffffffffffffffffff168152602001906001019080831161189b575b50505050508152505090506040518060400160405280600781526020017f656e726f75746500000000000000000000000000000000000000000000000000815250805190602001208160e0015180519060200120141561194e57828061194a90613600565b9350505b50808061195a90613600565b9150506115f0565b508091505090565b6000806000905060005b600080549050811015611ce6576000808281548110611996576119956134e7565b5b9060005260206000209060090201604051806101200160405290816000820160009054906101000a900473ffffffffffffffffffffffffffffffffffffffff1673ffffffffffffffffffffffffffffffffffffffff1673ffffffffffffffffffffffffffffffffffffffff1681526020016001820154815260200160028201548152602001600382018054611a2a90613545565b80601f0160208091040260200160405190810160405280929190818152602001828054611a5690613545565b8015611aa35780601f10611a7857610100808354040283529160200191611aa3565b820191906000526020600020905b815481529060010190602001808311611a8657829003601f168201915b50505050508152602001600482018054611abc90613545565b80601f0160208091040260200160405190810160405280929190818152602001828054611ae890613545565b8015611b355780601f10611b0a57610100808354040283529160200191611b35565b820191906000526020600020905b815481529060010190602001808311611b1857829003601f168201915b505050505081526020016005820154815260200160068201548152602001600782018054611b6290613545565b80601f0160208091040260200160405190810160405280929190818152602001828054611b8e90613545565b8015611bdb5780601f10611bb057610100808354040283529160200191611bdb565b820191906000526020600020905b815481529060010190602001808311611bbe57829003601f168201915b5050505050815260200160088201805480602002602001604051908101604052809291908181526020018280548015611c6957602002820191906000526020600020905b8160009054906101000a900473ffffffffffffffffffffffffffffffffffffffff1673ffffffffffffffffffffffffffffffffffffffff1681526020019060010190808311611c1f575b50505050508152505090506040518060400160405280600781526020017f496e697469616c00000000000000000000000000000000000000000000000000815250805190602001208160e00151805190602001201415611cd2578280611cce90613600565b9350505b508080611cde90613600565b915050611974565b508091505090565b60008080549050905090565b6000808281548110611d0f57611d0e6134e7565b5b9060005260206000209060090201604051806101200160405290816000820160009054906101000a900473ffffffffffffffffffffffffffffffffffffffff1673ffffffffffffffffffffffffffffffffffffffff1673ffffffffffffffffffffffffffffffffffffffff1681526020016001820154815260200160028201548152602001600382018054611da390613545565b80601f0160208091040260200160405190810160405280929190818152602001828054611dcf90613545565b8015611e1c5780601f10611df157610100808354040283529160200191611e1c565b820191906000526020600020905b815481529060010190602001808311611dff57829003601f168201915b50505050508152602001600482018054611e3590613545565b80601f0160208091040260200160405190810160405280929190818152602001828054611e6190613545565b8015611eae5780601f10611e8357610100808354040283529160200191611eae565b820191906000526020600020905b815481529060010190602001808311611e9157829003601f168201915b505050505081526020016005820154815260200160068201548152602001600782018054611edb90613545565b80601f0160208091040260200160405190810160405280929190818152602001828054611f0790613545565b8015611f545780601f10611f2957610100808354040283529160200191611f54565b820191906000526020600020905b815481529060010190602001808311611f3757829003601f168201915b5050505050815260200160088201805480602002602001604051908101604052809291908181526020018280548015611fe257602002820191906000526020600020905b8160009054906101000a900473ffffffffffffffffffffffffffffffffffffffff1673ffffffffffffffffffffffffffffffffffffffff1681526020019060010190808311611f98575b5050505050815250509050806000015173ffffffffffffffffffffffffffffffffffffffff163373ffffffffffffffffffffffffffffffffffffffff161461202957600080fd5b6040518060400160405280600781526020017f656e726f75746500000000000000000000000000000000000000000000000000815250805190602001208160e0015180519060200120141561207d57600080fd5b4781602001518261010001515161209491906135a6565b111561209f57600080fd5b60005b81610100015151811015612146576000670de0b6b3a764000083602001516120ca91906135a6565b905082610100015182815181106120e4576120e36134e7565b5b602002602001015173ffffffffffffffffffffffffffffffffffffffff166108fc829081150290604051600060405180830381858888f19350505050158015612131573d6000803e3d6000fd5b5050808061213e90613600565b9150506120a2565b506040518060400160405280600981526020017f43616e63656c6c6564000000000000000000000000000000000000000000000081525060008381548110612191576121906134e7565b5b906000526020600020906009020160070190805190602001906121b5929190612e0a565b505050565b6000806000905060005b6000805490508110156125365760008082815481106121e6576121e56134e7565b5b9060005260206000209060090201604051806101200160405290816000820160009054906101000a900473ffffffffffffffffffffffffffffffffffffffff1673ffffffffffffffffffffffffffffffffffffffff1673ffffffffffffffffffffffffffffffffffffffff168152602001600182015481526020016002820154815260200160038201805461227a90613545565b80601f01602080910402602001604051908101604052809291908181526020018280546122a690613545565b80156122f35780601f106122c8576101008083540402835291602001916122f3565b820191906000526020600020905b8154815290600101906020018083116122d657829003601f168201915b5050505050815260200160048201805461230c90613545565b80601f016020809104026020016040519081016040528092919081815260200182805461233890613545565b80156123855780601f1061235a57610100808354040283529160200191612385565b820191906000526020600020905b81548152906001019060200180831161236857829003601f168201915b5050505050815260200160058201548152602001600682015481526020016007820180546123b290613545565b80601f01602080910402602001604051908101604052809291908181526020018280546123de90613545565b801561242b5780601f106124005761010080835404028352916020019161242b565b820191906000526020600020905b81548152906001019060200180831161240e57829003601f168201915b50505050508152602001600882018054806020026020016040519081016040528092919081815260200182805480156124b957602002820191906000526020600020905b8160009054906101000a900473ffffffffffffffffffffffffffffffffffffffff1673ffffffffffffffffffffffffffffffffffffffff168152602001906001019080831161246f575b50505050508152505090506040518060400160405280600981526020017f636f6d706c657465640000000000000000000000000000000000000000000000815250805190602001208160e0015180519060200120141561252257828061251e90613600565b9350505b50808061252e90613600565b9150506121c4565b508091505090565b60008060008481548110612555576125546134e7565b5b9060005260206000209060090201604051806101200160405290816000820160009054906101000a900473ffffffffffffffffffffffffffffffffffffffff1673ffffffffffffffffffffffffffffffffffffffff1673ffffffffffffffffffffffffffffffffffffffff16815260200160018201548152602001600282015481526020016003820180546125e990613545565b80601f016020809104026020016040519081016040528092919081815260200182805461261590613545565b80156126625780601f1061263757610100808354040283529160200191612662565b820191906000526020600020905b81548152906001019060200180831161264557829003601f168201915b5050505050815260200160048201805461267b90613545565b80601f01602080910402602001604051908101604052809291908181526020018280546126a790613545565b80156126f45780601f106126c9576101008083540402835291602001916126f4565b820191906000526020600020905b8154815290600101906020018083116126d757829003601f168201915b50505050508152602001600582015481526020016006820154815260200160078201805461272190613545565b80601f016020809104026020016040519081016040528092919081815260200182805461274d90613545565b801561279a5780601f1061276f5761010080835404028352916020019161279a565b820191906000526020600020905b81548152906001019060200180831161277d57829003601f168201915b505050505081526020016008820180548060200260200160405190810160405280929190818152602001828054801561282857602002820191906000526020600020905b8160009054906101000a900473ffffffffffffffffffffffffffffffffffffffff1673ffffffffffffffffffffffffffffffffffffffff16815260200190600101908083116127de575b505050505081525050905060005b816101000151518110156128b5578373ffffffffffffffffffffffffffffffffffffffff168261010001518281518110612873576128726134e7565b5b602002602001015173ffffffffffffffffffffffffffffffffffffffff1614156128a2576001925050506128bc565b80806128ad90613600565b915050612836565b5060009150505b92915050565b60008082815481106128d7576128d66134e7565b5b9060005260206000209060090201604051806101200160405290816000820160009054906101000a900473ffffffffffffffffffffffffffffffffffffffff1673ffffffffffffffffffffffffffffffffffffffff1673ffffffffffffffffffffffffffffffffffffffff168152602001600182015481526020016002820154815260200160038201805461296b90613545565b80601f016020809104026020016040519081016040528092919081815260200182805461299790613545565b80156129e45780601f106129b9576101008083540402835291602001916129e4565b820191906000526020600020905b8154815290600101906020018083116129c757829003601f168201915b505050505081526020016004820180546129fd90613545565b80601f0160208091040260200160405190810160405280929190818152602001828054612a2990613545565b8015612a765780601f10612a4b57610100808354040283529160200191612a76565b820191906000526020600020905b815481529060010190602001808311612a5957829003601f168201915b505050505081526020016005820154815260200160068201548152602001600782018054612aa390613545565b80601f0160208091040260200160405190810160405280929190818152602001828054612acf90613545565b8015612b1c5780601f10612af157610100808354040283529160200191612b1c565b820191906000526020600020905b815481529060010190602001808311612aff57829003601f168201915b5050505050815260200160088201805480602002602001604051908101604052809291908181526020018280548015612baa57602002820191906000526020600020905b8160009054906101000a900473ffffffffffffffffffffffffffffffffffffffff1673ffffffffffffffffffffffffffffffffffffffff1681526020019060010190808311612b60575b5050505050815250509050806000015173ffffffffffffffffffffffffffffffffffffffff163373ffffffffffffffffffffffffffffffffffffffff1614612bf157600080fd5b6040518060400160405280600781526020017f656e726f7574650000000000000000000000000000000000000000000000000081525060008381548110612c3b57612c3a6134e7565b5b90600052602060002090600902016007019080519060200190612c5f929190612e0a565b505050565b606060006040518061012001604052803373ffffffffffffffffffffffffffffffffffffffff1681526020018881526020018781526020018681526020018581526020014281526020018481526020016040518060400160405280600781526020017f496e697469616c00000000000000000000000000000000000000000000000000815250815260200183815250908060018154018082558091505060019003906000526020600020906009020160009091909190915060008201518160000160006101000a81548173ffffffffffffffffffffffffffffffffffffffff021916908373ffffffffffffffffffffffffffffffffffffffff16021790555060208201518160010155604082015181600201556060820151816003019080519060200190612d93929190612e0a565b506080820151816004019080519060200190612db0929190612e0a565b5060a0820151816005015560c0820151816006015560e0820151816007019080519060200190612de1929190612e0a565b50610100820151816008019080519060200190612dff929190612e90565b505050505050505050565b828054612e1690613545565b90600052602060002090601f016020900481019282612e385760008555612e7f565b82601f10612e5157805160ff1916838001178555612e7f565b82800160010185558215612e7f579182015b82811115612e7e578251825591602001919060010190612e63565b5b509050612e8c9190612f1a565b5090565b828054828255906000526020600020908101928215612f09579160200282015b82811115612f085782518260006101000a81548173ffffffffffffffffffffffffffffffffffffffff021916908373ffffffffffffffffffffffffffffffffffffffff16021790555091602001919060010190612eb0565b5b509050612f169190612f1a565b5090565b5b80821115612f33576000816000905550600101612f1b565b5090565b6000604051905090565b600080fd5b600080fd5b6000819050919050565b612f5e81612f4b565b8114612f6957600080fd5b50565b600081359050612f7b81612f55565b92915050565b600060208284031215612f9757612f96612f41565b5b6000612fa584828501612f6c565b91505092915050565b60008115159050919050565b612fc381612fae565b82525050565b6000602082019050612fde6000830184612fba565b92915050565b600073ffffffffffffffffffffffffffffffffffffffff82169050919050565b600061300f82612fe4565b9050919050565b61301f81613004565b811461302a57600080fd5b50565b60008135905061303c81613016565b92915050565b6000806040838503121561305957613058612f41565b5b600061306785828601612f6c565b92505060206130788582860161302d565b9150509250929050565b600081519050919050565b600082825260208201905092915050565b6000819050602082019050919050565b6130b781613004565b82525050565b60006130c983836130ae565b60208301905092915050565b6000602082019050919050565b60006130ed82613082565b6130f7818561308d565b93506131028361309e565b8060005b8381101561313357815161311a88826130bd565b9750613125836130d5565b925050600181019050613106565b5085935050505092915050565b6000602082019050818103600083015261315a81846130e2565b905092915050565b61316b81612f4b565b82525050565b60006020820190506131866000830184613162565b92915050565b61319581613004565b82525050565b600081519050919050565b600082825260208201905092915050565b60005b838110156131d55780820151818401526020810190506131ba565b838111156131e4576000848401525b50505050565b6000601f19601f8301169050919050565b60006132068261319b565b61321081856131a6565b93506132208185602086016131b7565b613229816131ea565b840191505092915050565b60006101208201905061324a600083018c61318c565b613257602083018b613162565b613264604083018a613162565b818103606083015261327681896131fb565b9050818103608083015261328a81886131fb565b905061329960a0830187613162565b6132a660c0830186613162565b81810360e08301526132b881856131fb565b90508181036101008301526132cd81846130e2565b90509a9950505050505050505050565b600060208201905081810360008301526132f781846131fb565b905092915050565b600080fd5b600080fd5b7f4e487b7100000000000000000000000000000000000000000000000000000000600052604160045260246000fd5b613341826131ea565b810181811067ffffffffffffffff821117156133605761335f613309565b5b80604052505050565b6000613373612f37565b905061337f8282613338565b919050565b600067ffffffffffffffff82111561339f5761339e613309565b5b6133a8826131ea565b9050602081019050919050565b82818337600083830152505050565b60006133d76133d284613384565b613369565b9050828152602081018484840111156133f3576133f2613304565b5b6133fe8482856133b5565b509392505050565b600082601f83011261341b5761341a6132ff565b5b813561342b8482602086016133c4565b91505092915050565b600080600080600060a086880312156134505761344f612f41565b5b600061345e88828901612f6c565b955050602061346f88828901612f6c565b945050604086013567ffffffffffffffff8111156134905761348f612f46565b5b61349c88828901613406565b935050606086013567ffffffffffffffff8111156134bd576134bc612f46565b5b6134c988828901613406565b92505060806134da88828901612f6c565b9150509295509295909350565b7f4e487b7100000000000000000000000000000000000000000000000000000000600052603260045260246000fd5b7f4e487b7100000000000000000000000000000000000000000000000000000000600052602260045260246000fd5b6000600282049050600182168061355d57607f821691505b6020821081141561357157613570613516565b5b50919050565b7f4e487b7100000000000000000000000000000000000000000000000000000000600052601160045260246000fd5b60006135b182612f4b565b91506135bc83612f4b565b9250817fffffffffffffffffffffffffffffffffffffffffffffffffffffffffffffffff04831182151516156135f5576135f4613577565b5b828202905092915050565b600061360b82612f4b565b91507fffffffffffffffffffffffffffffffffffffffffffffffffffffffffffffffff82141561363e5761363d613577565b5b60018201905091905056fea2646970667358221220c68b163286d520e89d709be0e1ed02caab70dd54e6dacd86cc111abd0d50053b64736f6c634300080c0033",
  "immutableReferences": {},
  "source": "// SPDX-License-Identifier: GPL-3.0\r\n\r\npragma solidity >=0.5.0 <=0.9.0;\r\n// import \"./Transfer.sol\";\r\n\r\ncontract Rideshare {\r\n    struct Ride{\r\n        address driver;\r\n        uint drivingCost;\r\n        uint capacity;\r\n        string originAddress;\r\n        string destAddress;\r\n        uint createdAt;\r\n        uint departAt;\r\n        string rideStatus;\r\n        // mapping (address => string) rideStatus;\r\n        address[] passengerAccts;\r\n    }\r\n\r\n    Ride[]  rides;\r\n    // uint public rideCount;\r\n\r\n    // points will be given on successful completition of ride as a reputation\r\n    mapping (address => uint) reputationPoints;\r\n\r\n    // user can create ride  ---- called by driver\r\n    function createRide( uint _driverCost, uint _capacity, string memory _originAddress, string memory _destAddress, uint _departAt) public\r\n    {\r\n       address[] memory _passengerAccts;\r\n       rides.push(Ride(msg.sender, _driverCost, _capacity, _originAddress, _destAddress, block.timestamp, _departAt,\"Initial\", _passengerAccts));\r\n    }\r\n\r\n    // called by passenger to send request to join ride --- called by passenger\r\n    function joinRide(uint rideNumber) public payable{\r\n        Ride memory curRide = rides[rideNumber];\r\n\r\n        //ride should not be started to join ride by passenger\r\n        require(keccak256(bytes(curRide.rideStatus)) == keccak256(bytes(\"Initial\")));\r\n        require(msg.value >= curRide.drivingCost);\r\n        rides[rideNumber].passengerAccts.push(msg.sender);\r\n        rides[rideNumber].rideStatus = \"passengerRequested\";\r\n\r\n    }\r\n    function getContractBalance() public view returns(uint){\r\n        return address(this).balance;\r\n    }\r\n\r\n    // get list of all passenger in given ride\r\n    function getPassengers(uint rideNumber) view public returns(address[] memory) {\r\n        return rides[rideNumber].passengerAccts;\r\n    }\r\n    \r\n    // get ride status of given ride\r\n    function getRideStatus(uint rideNumber) view public returns(string memory) {\r\n    return rides[rideNumber].rideStatus;\r\n    }\r\n\r\n    // get rides from all ride by id of rides\r\n    function getRide(uint rideNumber) public view returns ( address, uint, uint, string memory, string memory, uint, uint, string memory, address[] memory) {\r\n    Ride memory ride = rides[rideNumber];\r\n    return (\r\n      ride.driver,\r\n      ride.drivingCost,\r\n      ride.capacity,\r\n      ride.originAddress,\r\n      ride.destAddress,\r\n      ride.createdAt,\r\n      ride.departAt,\r\n      ride.rideStatus,\r\n      ride.passengerAccts\r\n\r\n      );\r\n    }\r\n\r\n    // get total available ride count\r\n    function getAvailableRideCount() public view returns(uint) {\r\n        uint rideCount=0;\r\n        for (uint i=0;i<rides.length;i++){\r\n                Ride memory curRide = rides[i];\r\n                if(keccak256(bytes(curRide.rideStatus)) == keccak256(bytes(\"Initial\"))){\r\n                    rideCount++;\r\n                } \r\n\r\n        }\r\n    return rideCount;\r\n    }\r\n    function getEnrouteRideCount() public view returns(uint) {\r\n        uint rideCount=0;\r\n        for (uint i=0;i<rides.length;i++){\r\n                Ride memory curRide = rides[i];\r\n                if(keccak256(bytes(curRide.rideStatus)) == keccak256(bytes(\"enroute\"))){\r\n                    rideCount++;\r\n                } \r\n\r\n        }\r\n    return rideCount;\r\n    }\r\n    function getCompletedRideCount() public view returns(uint) {\r\n        uint rideCount=0;\r\n        for (uint i=0;i<rides.length;i++){\r\n                Ride memory curRide = rides[i];\r\n                if(keccak256(bytes(curRide.rideStatus)) == keccak256(bytes(\"completed\"))){\r\n                    rideCount++;\r\n                } \r\n\r\n        }\r\n    return rideCount;\r\n    }\r\n    \r\n    // get total ride count\r\n    function getTotalRideCount() public view returns(uint){\r\n        return rides.length;\r\n    }\r\n\r\n    // check is passenger is in ride or not \r\n    function passengerInRide(uint rideNumber, address passengerAcct) public view returns (bool) {\r\n    Ride memory curRide = rides[rideNumber];\r\n    for(uint i = 0; i < curRide.passengerAccts.length; i++) {\r\n      if (curRide.passengerAccts[i] == passengerAcct) {\r\n        return true;\r\n        }\r\n      }\r\n    return false;\r\n    }\r\n\r\n    // Done--- TO-DO - ride cancelled by the driver, transfer money back to all account ---- called by driver\r\n    function cancelRide(uint _rideNumber) public{\r\n        Ride memory curRide = rides[_rideNumber];\r\n        require(msg.sender == curRide.driver);\r\n        require(keccak256(bytes(curRide.rideStatus)) != keccak256(bytes(\"enroute\")));\r\n        require(curRide.passengerAccts.length*curRide.drivingCost <= address(this).balance);\r\n        for(uint i=0; i < curRide.passengerAccts.length; i++) {\r\n            uint256 amount = curRide.drivingCost*1000000000000000000;\r\n            payable(curRide.passengerAccts[i]).transfer(amount);\r\n        }\r\n        rides[_rideNumber].rideStatus = \"Cancelled\";\r\n\r\n    }\r\n\r\n    \r\n\r\n    // To-Do - create function to start ride and change ride status to enRoute ----- called by driver\r\n    function startRide(uint _rideNumber) public{\r\n        Ride memory curRide = rides[_rideNumber];\r\n        require(msg.sender == curRide.driver);\r\n        rides[_rideNumber].rideStatus = \"enroute\";\r\n    }\r\n    \r\n    // Done -----To-Do - When ride is completed, passenger will call the function and change ride status to completed and amount from contract to driver account will be transferred.\r\n    function endRide(uint _rideNumber) public returns(bool){\r\n        Ride memory curRide = rides[_rideNumber];\r\n        if (curRide.passengerAccts.length>0){\r\n        require(msg.sender != curRide.driver);\r\n        }\r\n        require(keccak256(bytes(curRide.rideStatus)) == keccak256(bytes(\"enroute\")));\r\n        require(address(this).balance>=curRide.passengerAccts.length*curRide.drivingCost);\r\n        uint256 amount = curRide.passengerAccts.length*curRide.drivingCost*1000000000000000000;\r\n        payable(curRide.driver).transfer(amount);\r\n        rides[_rideNumber].rideStatus = \"completed\";\r\n        return true;\r\n    }\r\n\r\n    \r\n    \r\n\r\n   // accept passenger's request to ride --- called by driver\r\n    function acceptPassengerRequest(uint rideNumber, address passengerAddress) public {\r\n    Ride memory curRide = rides[rideNumber];\r\n    require(keccak256(bytes(curRide.rideStatus)) == keccak256(bytes(\"passengerRequested\")));\r\n    require(msg.sender == curRide.driver);\r\n    for(uint i=0; i < curRide.passengerAccts.length; i++) {\r\n       if ( curRide.passengerAccts[i] == passengerAddress) {\r\n        rides[rideNumber].rideStatus = \"passengerConfirmed\";\r\n        }\r\n      }\r\n    }\r\n\r\n\r\n}\r\n\r\n\r\n\r\n\r\n\r\n\r\n",
  "sourcePath": "F:\\4th Year\\Final_Year_Project\\Main-project\\contracts\\RideShare.sol",
  "compiler": {
    "name": "solc",
    "version": "0.8.12+commit.f00d7308.Emscripten.clang"
  },
  "schemaVersion": "3.4.6",
  "updatedAt": "2022-05-02T13:41:26.653Z",
  "networkType": "ethereum",
  "devdoc": {
    "kind": "dev",
    "methods": {},
    "version": 1
  },
  "userdoc": {
    "kind": "user",
    "methods": {},
    "version": 1
  }
}