{
  "contractName": "Rideshare",
  "abi": [
    {
      "inputs": [
        {
          "internalType": "uint256",
          "name": "_driverCost",
          "type": "uint256"
        },
        {
          "internalType": "uint256",
          "name": "_capacity",
          "type": "uint256"
        },
        {
          "internalType": "string",
          "name": "_originAddress",
          "type": "string"
        },
        {
          "internalType": "string",
          "name": "_destAddress",
          "type": "string"
        },
        {
          "internalType": "uint256",
          "name": "_departAt",
          "type": "uint256"
        }
      ],
      "name": "createRide",
      "outputs": [],
      "stateMutability": "nonpayable",
      "type": "function"
    },
    {
      "inputs": [
        {
          "internalType": "uint256",
          "name": "rideNumber",
          "type": "uint256"
        }
      ],
      "name": "joinRide",
      "outputs": [],
      "stateMutability": "payable",
      "type": "function",
      "payable": true
    },
    {
      "inputs": [],
      "name": "getContractBalance",
      "outputs": [
        {
          "internalType": "uint256",
          "name": "",
          "type": "uint256"
        }
      ],
      "stateMutability": "view",
      "type": "function",
      "constant": true
    },
    {
      "inputs": [
        {
          "internalType": "uint256",
          "name": "rideNumber",
          "type": "uint256"
        }
      ],
      "name": "getPassengers",
      "outputs": [
        {
          "internalType": "address[]",
          "name": "",
          "type": "address[]"
        }
      ],
      "stateMutability": "view",
      "type": "function",
      "constant": true
    },
    {
      "inputs": [
        {
          "internalType": "uint256",
          "name": "rideNumber",
          "type": "uint256"
        }
      ],
      "name": "getRideStatus",
      "outputs": [
        {
          "internalType": "string",
          "name": "",
          "type": "string"
        }
      ],
      "stateMutability": "view",
      "type": "function",
      "constant": true
    },
    {
      "inputs": [
        {
          "internalType": "uint256",
          "name": "rideNumber",
          "type": "uint256"
        }
      ],
      "name": "getRide",
      "outputs": [
        {
          "internalType": "address",
          "name": "",
          "type": "address"
        },
        {
          "internalType": "uint256",
          "name": "",
          "type": "uint256"
        },
        {
          "internalType": "uint256",
          "name": "",
          "type": "uint256"
        },
        {
          "internalType": "string",
          "name": "",
          "type": "string"
        },
        {
          "internalType": "string",
          "name": "",
          "type": "string"
        },
        {
          "internalType": "uint256",
          "name": "",
          "type": "uint256"
        },
        {
          "internalType": "uint256",
          "name": "",
          "type": "uint256"
        },
        {
          "internalType": "string",
          "name": "",
          "type": "string"
        },
        {
          "internalType": "address[]",
          "name": "",
          "type": "address[]"
        }
      ],
      "stateMutability": "view",
      "type": "function",
      "constant": true
    },
    {
      "inputs": [],
      "name": "getAvailableRideCount",
      "outputs": [
        {
          "internalType": "uint256",
          "name": "",
          "type": "uint256"
        }
      ],
      "stateMutability": "view",
      "type": "function",
      "constant": true
    },
    {
      "inputs": [],
      "name": "getTotalRideCount",
      "outputs": [
        {
          "internalType": "uint256",
          "name": "",
          "type": "uint256"
        }
      ],
      "stateMutability": "view",
      "type": "function",
      "constant": true
    },
    {
      "inputs": [
        {
          "internalType": "uint256",
          "name": "rideNumber",
          "type": "uint256"
        },
        {
          "internalType": "address",
          "name": "passengerAcct",
          "type": "address"
        }
      ],
      "name": "passengerInRide",
      "outputs": [
        {
          "internalType": "bool",
          "name": "",
          "type": "bool"
        }
      ],
      "stateMutability": "view",
      "type": "function",
      "constant": true
    },
    {
      "inputs": [
        {
          "internalType": "uint256",
          "name": "_rideNumber",
          "type": "uint256"
        }
      ],
      "name": "cancelRide",
      "outputs": [],
      "stateMutability": "nonpayable",
      "type": "function"
    },
    {
      "inputs": [
        {
          "internalType": "uint256",
          "name": "_rideNumber",
          "type": "uint256"
        }
      ],
      "name": "startRide",
      "outputs": [],
      "stateMutability": "nonpayable",
      "type": "function"
    },
    {
      "inputs": [
        {
          "internalType": "uint256",
          "name": "_rideNumber",
          "type": "uint256"
        }
      ],
      "name": "endRide",
      "outputs": [
        {
          "internalType": "bool",
          "name": "",
          "type": "bool"
        }
      ],
      "stateMutability": "nonpayable",
      "type": "function"
    },
    {
      "inputs": [
        {
          "internalType": "uint256",
          "name": "rideNumber",
          "type": "uint256"
        },
        {
          "internalType": "address",
          "name": "passengerAddress",
          "type": "address"
        }
      ],
      "name": "acceptPassengerRequest",
      "outputs": [],
      "stateMutability": "nonpayable",
      "type": "function"
    }
  ],
  "bytecode": "0x608060405234801561001057600080fd5b50612ee1806100206000396000f3fe6080604052600436106100c25760003560e01c80638743e1d31161007f578063a6f07b2911610059578063a6f07b2914610289578063c4ef54d6146102b2578063e9c14b1e146102ef578063f98b677814610318576100c2565b80638743e1d3146101f65780639589fe9b146102335780639e156f2d1461025e576100c2565b806301f32206146100c757806350a548fc146100e35780635b3f1cb1146101205780636d4d31f2146101495780636f9fb98a146101865780637c7b0ff4146101b1575b600080fd5b6100e160048036038101906100dc91906127e3565b610341565b005b3480156100ef57600080fd5b5061010a600480360381019061010591906127e3565b610791565b604051610117919061282b565b60405180910390f35b34801561012c57600080fd5b50610147600480360381019061014291906128a4565b610c3a565b005b34801561015557600080fd5b50610170600480360381019061016b91906127e3565b6110a9565b60405161017d91906129a2565b60405180910390f35b34801561019257600080fd5b5061019b61115c565b6040516101a891906129d3565b60405180910390f35b3480156101bd57600080fd5b506101d860048036038101906101d391906127e3565b611164565b6040516101ed99989796959493929190612a96565b60405180910390f35b34801561020257600080fd5b5061021d600480360381019061021891906127e3565b6114b3565b60405161022a9190612b3f565b60405180910390f35b34801561023f57600080fd5b5061024861156a565b60405161025591906129d3565b60405180910390f35b34801561026a57600080fd5b506102736118ee565b60405161028091906129d3565b60405180910390f35b34801561029557600080fd5b506102b060048036038101906102ab91906127e3565b6118fa565b005b3480156102be57600080fd5b506102d960048036038101906102d491906128a4565b611da0565b6040516102e6919061282b565b60405180910390f35b3480156102fb57600080fd5b50610316600480360381019061031191906127e3565b612124565b005b34801561032457600080fd5b5061033f600480360381019061033a9190612c96565b6124c6565b005b600080828154811061035657610355612d49565b5b9060005260206000209060090201604051806101200160405290816000820160009054906101000a900473ffffffffffffffffffffffffffffffffffffffff1673ffffffffffffffffffffffffffffffffffffffff1673ffffffffffffffffffffffffffffffffffffffff16815260200160018201548152602001600282015481526020016003820180546103ea90612da7565b80601f016020809104026020016040519081016040528092919081815260200182805461041690612da7565b80156104635780601f1061043857610100808354040283529160200191610463565b820191906000526020600020905b81548152906001019060200180831161044657829003601f168201915b5050505050815260200160048201805461047c90612da7565b80601f01602080910402602001604051908101604052809291908181526020018280546104a890612da7565b80156104f55780601f106104ca576101008083540402835291602001916104f5565b820191906000526020600020905b8154815290600101906020018083116104d857829003601f168201915b50505050508152602001600582015481526020016006820154815260200160078201805461052290612da7565b80601f016020809104026020016040519081016040528092919081815260200182805461054e90612da7565b801561059b5780601f106105705761010080835404028352916020019161059b565b820191906000526020600020905b81548152906001019060200180831161057e57829003601f168201915b505050505081526020016008820180548060200260200160405190810160405280929190818152602001828054801561062957602002820191906000526020600020905b8160009054906101000a900473ffffffffffffffffffffffffffffffffffffffff1673ffffffffffffffffffffffffffffffffffffffff16815260200190600101908083116105df575b50505050508152505090506040518060400160405280600781526020017f496e697469616c00000000000000000000000000000000000000000000000000815250805190602001208160e00151805190602001201461068757600080fd5b806020015134101561069857600080fd5b600082815481106106ac576106ab612d49565b5b9060005260206000209060090201600801339080600181540180825580915050600190039060005260206000200160009091909190916101000a81548173ffffffffffffffffffffffffffffffffffffffff021916908373ffffffffffffffffffffffffffffffffffffffff1602179055506040518060400160405280601281526020017f70617373656e67657252657175657374656400000000000000000000000000008152506000838154811061076857610767612d49565b5b9060005260206000209060090201600701908051906020019061078c92919061266c565b505050565b600080600083815481106107a8576107a7612d49565b5b9060005260206000209060090201604051806101200160405290816000820160009054906101000a900473ffffffffffffffffffffffffffffffffffffffff1673ffffffffffffffffffffffffffffffffffffffff1673ffffffffffffffffffffffffffffffffffffffff168152602001600182015481526020016002820154815260200160038201805461083c90612da7565b80601f016020809104026020016040519081016040528092919081815260200182805461086890612da7565b80156108b55780601f1061088a576101008083540402835291602001916108b5565b820191906000526020600020905b81548152906001019060200180831161089857829003601f168201915b505050505081526020016004820180546108ce90612da7565b80601f01602080910402602001604051908101604052809291908181526020018280546108fa90612da7565b80156109475780601f1061091c57610100808354040283529160200191610947565b820191906000526020600020905b81548152906001019060200180831161092a57829003601f168201915b50505050508152602001600582015481526020016006820154815260200160078201805461097490612da7565b80601f01602080910402602001604051908101604052809291908181526020018280546109a090612da7565b80156109ed5780601f106109c2576101008083540402835291602001916109ed565b820191906000526020600020905b8154815290600101906020018083116109d057829003601f168201915b5050505050815260200160088201805480602002602001604051908101604052809291908181526020018280548015610a7b57602002820191906000526020600020905b8160009054906101000a900473ffffffffffffffffffffffffffffffffffffffff1673ffffffffffffffffffffffffffffffffffffffff1681526020019060010190808311610a31575b50505050508152505090506000816101000151511115610ad357806000015173ffffffffffffffffffffffffffffffffffffffff163373ffffffffffffffffffffffffffffffffffffffff161415610ad257600080fd5b5b6040518060400160405280600781526020017f656e726f75746500000000000000000000000000000000000000000000000000815250805190602001208160e001518051906020012014610b2657600080fd5b806020015181610100015151610b3c9190612e08565b471015610b4857600080fd5b6000670de0b6b3a7640000826020015183610100015151610b699190612e08565b610b739190612e08565b9050816000015173ffffffffffffffffffffffffffffffffffffffff166108fc829081150290604051600060405180830381858888f19350505050158015610bbf573d6000803e3d6000fd5b506040518060400160405280600981526020017f636f6d706c65746564000000000000000000000000000000000000000000000081525060008581548110610c0a57610c09612d49565b5b90600052602060002090600902016007019080519060200190610c2e92919061266c565b50600192505050919050565b6000808381548110610c4f57610c4e612d49565b5b9060005260206000209060090201604051806101200160405290816000820160009054906101000a900473ffffffffffffffffffffffffffffffffffffffff1673ffffffffffffffffffffffffffffffffffffffff1673ffffffffffffffffffffffffffffffffffffffff1681526020016001820154815260200160028201548152602001600382018054610ce390612da7565b80601f0160208091040260200160405190810160405280929190818152602001828054610d0f90612da7565b8015610d5c5780601f10610d3157610100808354040283529160200191610d5c565b820191906000526020600020905b815481529060010190602001808311610d3f57829003601f168201915b50505050508152602001600482018054610d7590612da7565b80601f0160208091040260200160405190810160405280929190818152602001828054610da190612da7565b8015610dee5780601f10610dc357610100808354040283529160200191610dee565b820191906000526020600020905b815481529060010190602001808311610dd157829003601f168201915b505050505081526020016005820154815260200160068201548152602001600782018054610e1b90612da7565b80601f0160208091040260200160405190810160405280929190818152602001828054610e4790612da7565b8015610e945780601f10610e6957610100808354040283529160200191610e94565b820191906000526020600020905b815481529060010190602001808311610e7757829003601f168201915b5050505050815260200160088201805480602002602001604051908101604052809291908181526020018280548015610f2257602002820191906000526020600020905b8160009054906101000a900473ffffffffffffffffffffffffffffffffffffffff1673ffffffffffffffffffffffffffffffffffffffff1681526020019060010190808311610ed8575b50505050508152505090506040518060400160405280601281526020017f70617373656e6765725265717565737465640000000000000000000000000000815250805190602001208160e001518051906020012014610f8057600080fd5b806000015173ffffffffffffffffffffffffffffffffffffffff163373ffffffffffffffffffffffffffffffffffffffff1614610fbc57600080fd5b60005b816101000151518110156110a3578273ffffffffffffffffffffffffffffffffffffffff168261010001518281518110610ffc57610ffb612d49565b5b602002602001015173ffffffffffffffffffffffffffffffffffffffff161415611090576040518060400160405280601281526020017f70617373656e676572436f6e6669726d656400000000000000000000000000008152506000858154811061106a57611069612d49565b5b9060005260206000209060090201600701908051906020019061108e92919061266c565b505b808061109b90612e62565b915050610fbf565b50505050565b6060600082815481106110bf576110be612d49565b5b906000526020600020906009020160080180548060200260200160405190810160405280929190818152602001828054801561115057602002820191906000526020600020905b8160009054906101000a900473ffffffffffffffffffffffffffffffffffffffff1673ffffffffffffffffffffffffffffffffffffffff1681526020019060010190808311611106575b50505050509050919050565b600047905090565b60008060006060806000806060806000808b8154811061118757611186612d49565b5b9060005260206000209060090201604051806101200160405290816000820160009054906101000a900473ffffffffffffffffffffffffffffffffffffffff1673ffffffffffffffffffffffffffffffffffffffff1673ffffffffffffffffffffffffffffffffffffffff168152602001600182015481526020016002820154815260200160038201805461121b90612da7565b80601f016020809104026020016040519081016040528092919081815260200182805461124790612da7565b80156112945780601f1061126957610100808354040283529160200191611294565b820191906000526020600020905b81548152906001019060200180831161127757829003601f168201915b505050505081526020016004820180546112ad90612da7565b80601f01602080910402602001604051908101604052809291908181526020018280546112d990612da7565b80156113265780601f106112fb57610100808354040283529160200191611326565b820191906000526020600020905b81548152906001019060200180831161130957829003601f168201915b50505050508152602001600582015481526020016006820154815260200160078201805461135390612da7565b80601f016020809104026020016040519081016040528092919081815260200182805461137f90612da7565b80156113cc5780601f106113a1576101008083540402835291602001916113cc565b820191906000526020600020905b8154815290600101906020018083116113af57829003601f168201915b505050505081526020016008820180548060200260200160405190810160405280929190818152602001828054801561145a57602002820191906000526020600020905b8160009054906101000a900473ffffffffffffffffffffffffffffffffffffffff1673ffffffffffffffffffffffffffffffffffffffff1681526020019060010190808311611410575b5050505050815250509050806000015181602001518260400151836060015184608001518560a001518660c001518760e00151886101000151995099509950995099509950995099509950509193959799909294969850565b6060600082815481106114c9576114c8612d49565b5b906000526020600020906009020160070180546114e590612da7565b80601f016020809104026020016040519081016040528092919081815260200182805461151190612da7565b801561155e5780601f106115335761010080835404028352916020019161155e565b820191906000526020600020905b81548152906001019060200180831161154157829003601f168201915b50505050509050919050565b6000806000905060005b6000805490508110156118e657600080828154811061159657611595612d49565b5b9060005260206000209060090201604051806101200160405290816000820160009054906101000a900473ffffffffffffffffffffffffffffffffffffffff1673ffffffffffffffffffffffffffffffffffffffff1673ffffffffffffffffffffffffffffffffffffffff168152602001600182015481526020016002820154815260200160038201805461162a90612da7565b80601f016020809104026020016040519081016040528092919081815260200182805461165690612da7565b80156116a35780601f10611678576101008083540402835291602001916116a3565b820191906000526020600020905b81548152906001019060200180831161168657829003601f168201915b505050505081526020016004820180546116bc90612da7565b80601f01602080910402602001604051908101604052809291908181526020018280546116e890612da7565b80156117355780601f1061170a57610100808354040283529160200191611735565b820191906000526020600020905b81548152906001019060200180831161171857829003601f168201915b50505050508152602001600582015481526020016006820154815260200160078201805461176290612da7565b80601f016020809104026020016040519081016040528092919081815260200182805461178e90612da7565b80156117db5780601f106117b0576101008083540402835291602001916117db565b820191906000526020600020905b8154815290600101906020018083116117be57829003601f168201915b505050505081526020016008820180548060200260200160405190810160405280929190818152602001828054801561186957602002820191906000526020600020905b8160009054906101000a900473ffffffffffffffffffffffffffffffffffffffff1673ffffffffffffffffffffffffffffffffffffffff168152602001906001019080831161181f575b50505050508152505090506040518060400160405280600781526020017f496e697469616c00000000000000000000000000000000000000000000000000815250805190602001208160e001518051906020012014156118d25782806118ce90612e62565b9350505b5080806118de90612e62565b915050611574565b508091505090565b60008080549050905090565b600080828154811061190f5761190e612d49565b5b9060005260206000209060090201604051806101200160405290816000820160009054906101000a900473ffffffffffffffffffffffffffffffffffffffff1673ffffffffffffffffffffffffffffffffffffffff1673ffffffffffffffffffffffffffffffffffffffff16815260200160018201548152602001600282015481526020016003820180546119a390612da7565b80601f01602080910402602001604051908101604052809291908181526020018280546119cf90612da7565b8015611a1c5780601f106119f157610100808354040283529160200191611a1c565b820191906000526020600020905b8154815290600101906020018083116119ff57829003601f168201915b50505050508152602001600482018054611a3590612da7565b80601f0160208091040260200160405190810160405280929190818152602001828054611a6190612da7565b8015611aae5780601f10611a8357610100808354040283529160200191611aae565b820191906000526020600020905b815481529060010190602001808311611a9157829003601f168201915b505050505081526020016005820154815260200160068201548152602001600782018054611adb90612da7565b80601f0160208091040260200160405190810160405280929190818152602001828054611b0790612da7565b8015611b545780601f10611b2957610100808354040283529160200191611b54565b820191906000526020600020905b815481529060010190602001808311611b3757829003601f168201915b5050505050815260200160088201805480602002602001604051908101604052809291908181526020018280548015611be257602002820191906000526020600020905b8160009054906101000a900473ffffffffffffffffffffffffffffffffffffffff1673ffffffffffffffffffffffffffffffffffffffff1681526020019060010190808311611b98575b5050505050815250509050806000015173ffffffffffffffffffffffffffffffffffffffff163373ffffffffffffffffffffffffffffffffffffffff1614611c2957600080fd5b6040518060400160405280600781526020017f496e697469616c00000000000000000000000000000000000000000000000000815250805190602001208160e001518051906020012014611c7c57600080fd5b47816020015182610100015151611c939190612e08565b1115611c9e57600080fd5b60005b81610100015151811015611d2c578161010001518181518110611cc757611cc6612d49565b5b602002602001015173ffffffffffffffffffffffffffffffffffffffff166108fc83602001519081150290604051600060405180830381858888f19350505050158015611d18573d6000803e3d6000fd5b508080611d2490612e62565b915050611ca1565b506040518060400160405280600981526020017f43616e63656c6c6564000000000000000000000000000000000000000000000081525060008381548110611d7757611d76612d49565b5b90600052602060002090600902016007019080519060200190611d9b92919061266c565b505050565b60008060008481548110611db757611db6612d49565b5b9060005260206000209060090201604051806101200160405290816000820160009054906101000a900473ffffffffffffffffffffffffffffffffffffffff1673ffffffffffffffffffffffffffffffffffffffff1673ffffffffffffffffffffffffffffffffffffffff1681526020016001820154815260200160028201548152602001600382018054611e4b90612da7565b80601f0160208091040260200160405190810160405280929190818152602001828054611e7790612da7565b8015611ec45780601f10611e9957610100808354040283529160200191611ec4565b820191906000526020600020905b815481529060010190602001808311611ea757829003601f168201915b50505050508152602001600482018054611edd90612da7565b80601f0160208091040260200160405190810160405280929190818152602001828054611f0990612da7565b8015611f565780601f10611f2b57610100808354040283529160200191611f56565b820191906000526020600020905b815481529060010190602001808311611f3957829003601f168201915b505050505081526020016005820154815260200160068201548152602001600782018054611f8390612da7565b80601f0160208091040260200160405190810160405280929190818152602001828054611faf90612da7565b8015611ffc5780601f10611fd157610100808354040283529160200191611ffc565b820191906000526020600020905b815481529060010190602001808311611fdf57829003601f168201915b505050505081526020016008820180548060200260200160405190810160405280929190818152602001828054801561208a57602002820191906000526020600020905b8160009054906101000a900473ffffffffffffffffffffffffffffffffffffffff1673ffffffffffffffffffffffffffffffffffffffff1681526020019060010190808311612040575b505050505081525050905060005b81610100015151811015612117578373ffffffffffffffffffffffffffffffffffffffff1682610100015182815181106120d5576120d4612d49565b5b602002602001015173ffffffffffffffffffffffffffffffffffffffff1614156121045760019250505061211e565b808061210f90612e62565b915050612098565b5060009150505b92915050565b600080828154811061213957612138612d49565b5b9060005260206000209060090201604051806101200160405290816000820160009054906101000a900473ffffffffffffffffffffffffffffffffffffffff1673ffffffffffffffffffffffffffffffffffffffff1673ffffffffffffffffffffffffffffffffffffffff16815260200160018201548152602001600282015481526020016003820180546121cd90612da7565b80601f01602080910402602001604051908101604052809291908181526020018280546121f990612da7565b80156122465780601f1061221b57610100808354040283529160200191612246565b820191906000526020600020905b81548152906001019060200180831161222957829003601f168201915b5050505050815260200160048201805461225f90612da7565b80601f016020809104026020016040519081016040528092919081815260200182805461228b90612da7565b80156122d85780601f106122ad576101008083540402835291602001916122d8565b820191906000526020600020905b8154815290600101906020018083116122bb57829003601f168201915b50505050508152602001600582015481526020016006820154815260200160078201805461230590612da7565b80601f016020809104026020016040519081016040528092919081815260200182805461233190612da7565b801561237e5780601f106123535761010080835404028352916020019161237e565b820191906000526020600020905b81548152906001019060200180831161236157829003601f168201915b505050505081526020016008820180548060200260200160405190810160405280929190818152602001828054801561240c57602002820191906000526020600020905b8160009054906101000a900473ffffffffffffffffffffffffffffffffffffffff1673ffffffffffffffffffffffffffffffffffffffff16815260200190600101908083116123c2575b5050505050815250509050806000015173ffffffffffffffffffffffffffffffffffffffff163373ffffffffffffffffffffffffffffffffffffffff161461245357600080fd5b6040518060400160405280600781526020017f656e726f757465000000000000000000000000000000000000000000000000008152506000838154811061249d5761249c612d49565b5b906000526020600020906009020160070190805190602001906124c192919061266c565b505050565b606060006040518061012001604052803373ffffffffffffffffffffffffffffffffffffffff1681526020018881526020018781526020018681526020018581526020014281526020018481526020016040518060400160405280600781526020017f496e697469616c00000000000000000000000000000000000000000000000000815250815260200183815250908060018154018082558091505060019003906000526020600020906009020160009091909190915060008201518160000160006101000a81548173ffffffffffffffffffffffffffffffffffffffff021916908373ffffffffffffffffffffffffffffffffffffffff160217905550602082015181600101556040820151816002015560608201518160030190805190602001906125f592919061266c565b50608082015181600401908051906020019061261292919061266c565b5060a0820151816005015560c0820151816006015560e082015181600701908051906020019061264392919061266c565b506101008201518160080190805190602001906126619291906126f2565b505050505050505050565b82805461267890612da7565b90600052602060002090601f01602090048101928261269a57600085556126e1565b82601f106126b357805160ff19168380011785556126e1565b828001600101855582156126e1579182015b828111156126e05782518255916020019190600101906126c5565b5b5090506126ee919061277c565b5090565b82805482825590600052602060002090810192821561276b579160200282015b8281111561276a5782518260006101000a81548173ffffffffffffffffffffffffffffffffffffffff021916908373ffffffffffffffffffffffffffffffffffffffff16021790555091602001919060010190612712565b5b509050612778919061277c565b5090565b5b8082111561279557600081600090555060010161277d565b5090565b6000604051905090565b600080fd5b600080fd5b6000819050919050565b6127c0816127ad565b81146127cb57600080fd5b50565b6000813590506127dd816127b7565b92915050565b6000602082840312156127f9576127f86127a3565b5b6000612807848285016127ce565b91505092915050565b60008115159050919050565b61282581612810565b82525050565b6000602082019050612840600083018461281c565b92915050565b600073ffffffffffffffffffffffffffffffffffffffff82169050919050565b600061287182612846565b9050919050565b61288181612866565b811461288c57600080fd5b50565b60008135905061289e81612878565b92915050565b600080604083850312156128bb576128ba6127a3565b5b60006128c9858286016127ce565b92505060206128da8582860161288f565b9150509250929050565b600081519050919050565b600082825260208201905092915050565b6000819050602082019050919050565b61291981612866565b82525050565b600061292b8383612910565b60208301905092915050565b6000602082019050919050565b600061294f826128e4565b61295981856128ef565b935061296483612900565b8060005b8381101561299557815161297c888261291f565b975061298783612937565b925050600181019050612968565b5085935050505092915050565b600060208201905081810360008301526129bc8184612944565b905092915050565b6129cd816127ad565b82525050565b60006020820190506129e860008301846129c4565b92915050565b6129f781612866565b82525050565b600081519050919050565b600082825260208201905092915050565b60005b83811015612a37578082015181840152602081019050612a1c565b83811115612a46576000848401525b50505050565b6000601f19601f8301169050919050565b6000612a68826129fd565b612a728185612a08565b9350612a82818560208601612a19565b612a8b81612a4c565b840191505092915050565b600061012082019050612aac600083018c6129ee565b612ab9602083018b6129c4565b612ac6604083018a6129c4565b8181036060830152612ad88189612a5d565b90508181036080830152612aec8188612a5d565b9050612afb60a08301876129c4565b612b0860c08301866129c4565b81810360e0830152612b1a8185612a5d565b9050818103610100830152612b2f8184612944565b90509a9950505050505050505050565b60006020820190508181036000830152612b598184612a5d565b905092915050565b600080fd5b600080fd5b7f4e487b7100000000000000000000000000000000000000000000000000000000600052604160045260246000fd5b612ba382612a4c565b810181811067ffffffffffffffff82111715612bc257612bc1612b6b565b5b80604052505050565b6000612bd5612799565b9050612be18282612b9a565b919050565b600067ffffffffffffffff821115612c0157612c00612b6b565b5b612c0a82612a4c565b9050602081019050919050565b82818337600083830152505050565b6000612c39612c3484612be6565b612bcb565b905082815260208101848484011115612c5557612c54612b66565b5b612c60848285612c17565b509392505050565b600082601f830112612c7d57612c7c612b61565b5b8135612c8d848260208601612c26565b91505092915050565b600080600080600060a08688031215612cb257612cb16127a3565b5b6000612cc0888289016127ce565b9550506020612cd1888289016127ce565b945050604086013567ffffffffffffffff811115612cf257612cf16127a8565b5b612cfe88828901612c68565b935050606086013567ffffffffffffffff811115612d1f57612d1e6127a8565b5b612d2b88828901612c68565b9250506080612d3c888289016127ce565b9150509295509295909350565b7f4e487b7100000000000000000000000000000000000000000000000000000000600052603260045260246000fd5b7f4e487b7100000000000000000000000000000000000000000000000000000000600052602260045260246000fd5b60006002820490506001821680612dbf57607f821691505b60208210811415612dd357612dd2612d78565b5b50919050565b7f4e487b7100000000000000000000000000000000000000000000000000000000600052601160045260246000fd5b6000612e13826127ad565b9150612e1e836127ad565b9250817fffffffffffffffffffffffffffffffffffffffffffffffffffffffffffffffff0483118215151615612e5757612e56612dd9565b5b828202905092915050565b6000612e6d826127ad565b91507fffffffffffffffffffffffffffffffffffffffffffffffffffffffffffffffff821415612ea057612e9f612dd9565b5b60018201905091905056fea26469706673582212203242b70f40d64cd88caa2171527350660d5cfa0a5dc44dc946cd94a25b597a3564736f6c634300080c0033",
  "immutableReferences": {},
  "source": "// SPDX-License-Identifier: GPL-3.0\r\n\r\npragma solidity >=0.5.0 <=0.9.0;\r\n// import \"./Transfer.sol\";\r\n\r\ncontract Rideshare {\r\n    struct Ride{\r\n        address driver;\r\n        uint drivingCost;\r\n        uint capacity;\r\n        string originAddress;\r\n        string destAddress;\r\n        uint createdAt;\r\n        uint departAt;\r\n        string rideStatus;\r\n        // mapping (address => string) rideStatus;\r\n        address[] passengerAccts;\r\n    }\r\n\r\n    Ride[]  rides;\r\n    // uint public rideCount;\r\n\r\n    // points will be given on successful completition of ride as a reputation\r\n    mapping (address => uint) reputationPoints;\r\n\r\n    // user can create ride  ---- called by driver\r\n    function createRide( uint _driverCost, uint _capacity, string memory _originAddress, string memory _destAddress, uint _departAt) public\r\n    {\r\n       address[] memory _passengerAccts;\r\n       rides.push(Ride(msg.sender, _driverCost, _capacity, _originAddress, _destAddress, block.timestamp, _departAt,\"Initial\", _passengerAccts));\r\n    }\r\n\r\n    // called by passenger to send request to join ride --- called by passenger\r\n    function joinRide(uint rideNumber) public payable{\r\n        Ride memory curRide = rides[rideNumber];\r\n\r\n        //ride should not be started to join ride by passenger\r\n        require(keccak256(bytes(curRide.rideStatus)) == keccak256(bytes(\"Initial\")));\r\n        require(msg.value >= curRide.drivingCost);\r\n        rides[rideNumber].passengerAccts.push(msg.sender);\r\n        rides[rideNumber].rideStatus = \"passengerRequested\";\r\n\r\n    }\r\n    function getContractBalance() public view returns(uint){\r\n        return address(this).balance;\r\n    }\r\n\r\n    // get list of all passenger in given ride\r\n    function getPassengers(uint rideNumber) view public returns(address[] memory) {\r\n        return rides[rideNumber].passengerAccts;\r\n    }\r\n    \r\n    // get ride status of given ride\r\n    function getRideStatus(uint rideNumber) view public returns(string memory) {\r\n    return rides[rideNumber].rideStatus;\r\n    }\r\n\r\n    // get rides from all ride by id of rides\r\n    function getRide(uint rideNumber) public view returns ( address, uint, uint, string memory, string memory, uint, uint, string memory, address[] memory) {\r\n    Ride memory ride = rides[rideNumber];\r\n    return (\r\n      ride.driver,\r\n      ride.drivingCost,\r\n      ride.capacity,\r\n      ride.originAddress,\r\n      ride.destAddress,\r\n      ride.createdAt,\r\n      ride.departAt,\r\n      ride.rideStatus,\r\n      ride.passengerAccts\r\n\r\n      );\r\n    }\r\n\r\n    // get total available ride count\r\n    function getAvailableRideCount() public view returns(uint) {\r\n        uint rideCount=0;\r\n        for (uint i=0;i<rides.length;i++){\r\n                Ride memory curRide = rides[i];\r\n                if(keccak256(bytes(curRide.rideStatus)) == keccak256(bytes(\"Initial\"))){\r\n                    rideCount++;\r\n                } \r\n\r\n        }\r\n    return rideCount;\r\n    }\r\n    \r\n    // get total ride count\r\n    function getTotalRideCount() public view returns(uint){\r\n        return rides.length;\r\n    }\r\n\r\n    // check is passenger is in ride or not \r\n    function passengerInRide(uint rideNumber, address passengerAcct) public view returns (bool) {\r\n    Ride memory curRide = rides[rideNumber];\r\n    for(uint i = 0; i < curRide.passengerAccts.length; i++) {\r\n      if (curRide.passengerAccts[i] == passengerAcct) {\r\n        return true;\r\n        }\r\n      }\r\n    return false;\r\n    }\r\n\r\n    // Done--- TO-DO - ride cancelled by the driver, transfer money back to all account ---- called by driver\r\n    function cancelRide(uint _rideNumber) public{\r\n        Ride memory curRide = rides[_rideNumber];\r\n        require(msg.sender == curRide.driver);\r\n        require(keccak256(bytes(curRide.rideStatus)) == keccak256(bytes(\"Initial\")));\r\n        require(curRide.passengerAccts.length*curRide.drivingCost <= address(this).balance);\r\n        for(uint i=0; i < curRide.passengerAccts.length; i++) {\r\n            payable(curRide.passengerAccts[i]).transfer(curRide.drivingCost);\r\n        }\r\n        rides[_rideNumber].rideStatus = \"Cancelled\";\r\n\r\n    }\r\n\r\n    \r\n\r\n    // To-Do - create function to start ride and change ride status to enRoute ----- called by driver\r\n    function startRide(uint _rideNumber) public{\r\n        Ride memory curRide = rides[_rideNumber];\r\n        require(msg.sender == curRide.driver);\r\n        rides[_rideNumber].rideStatus = \"enroute\";\r\n    }\r\n    \r\n    // Done -----To-Do - When ride is completed, passenger will call the function and change ride status to completed and amount from contract to driver account will be transferred.\r\n    function endRide(uint _rideNumber) public returns(bool){\r\n        Ride memory curRide = rides[_rideNumber];\r\n        if (curRide.passengerAccts.length>0){\r\n        require(msg.sender != curRide.driver);\r\n        }\r\n        require(keccak256(bytes(curRide.rideStatus)) == keccak256(bytes(\"enroute\")));\r\n        require(address(this).balance>=curRide.passengerAccts.length*curRide.drivingCost);\r\n        uint256 amount = curRide.passengerAccts.length*curRide.drivingCost*1000000000000000000;\r\n        payable(curRide.driver).transfer(amount);\r\n        rides[_rideNumber].rideStatus = \"completed\";\r\n        return true;\r\n    }\r\n\r\n    \r\n    \r\n\r\n   // accept passenger's request to ride --- called by driver\r\n    function acceptPassengerRequest(uint rideNumber, address passengerAddress) public {\r\n    Ride memory curRide = rides[rideNumber];\r\n    require(keccak256(bytes(curRide.rideStatus)) == keccak256(bytes(\"passengerRequested\")));\r\n    require(msg.sender == curRide.driver);\r\n    for(uint i=0; i < curRide.passengerAccts.length; i++) {\r\n       if ( curRide.passengerAccts[i] == passengerAddress) {\r\n        rides[rideNumber].rideStatus = \"passengerConfirmed\";\r\n        }\r\n      }\r\n    }\r\n\r\n\r\n}\r\n\r\n\r\n\r\n\r\n\r\n\r\n",
  "sourcePath": "F:\\4th Year\\Final_Year_Project\\Main-project\\contracts\\RideShare.sol",
  "compiler": {
    "name": "solc",
    "version": "0.8.12+commit.f00d7308.Emscripten.clang"
  },
  "schemaVersion": "3.4.6",
  "updatedAt": "2022-04-24T16:57:48.560Z",
  "networkType": "ethereum",
  "devdoc": {
    "kind": "dev",
    "methods": {},
    "version": 1
  },
  "userdoc": {
    "kind": "user",
    "methods": {},
    "version": 1
  }
}